:100000000C9434000C943E000C943E000C943E0082
:100010000C943E000C943E000C943E000C943E0068
:100020000C943E000C943E000C943E000C943E0058
:100030000C943E000C943E000C943E000C943E0048
:100040000C943E000C943E000C943E000C943E0038
:100050000C943E000C943E000C943E000C943E0028
:100060000C943E000C943E0011241FBECFEFD8E04C
:10007000DEBFCDBF0E9440000C94E3000C94000052
:100080000E949B00579A259A0E94E2005F9A2D9A3F
:100090002FEF81EE94E0215080409040E1F700C0C6
:1000A00000005F982D982FEF81EE94E02150804062
:1000B0009040E1F700C00000E7CF662311F0409ABE
:1000C00001C0409898B19C7398B928B1982F929527
:1000D0009F70990F990F922B98B9419835E03A95F6
:1000E000F1F70000419A95E09A95F1F700004198E8
:1000F000EFE8F1E03197F1F700C0000098B1937C90
:1001000098B928B1F4E08F9FC00111248C73822B21
:1001100088B9419835E03A95F1F70000419A85E0B9
:100120008A95F1F700004198EFE8F1E03197F1F797
:1001300000C000000895409A419A429A439A449A16
:10014000459A2FEF80E792E0215080409040E1F700
:1001500000C000004098419888B118B88FE19EE433
:100160000197F1F700C0000018B88FE19EE40197F5
:10017000F1F700C0000018B88FE19EE40197F1F795
:1001800000C0000018B88FE19EE40197F1F700C0AD
:10019000000060E088E20E945D0060E08CE00E9468
:1001A0005D0060E081E00E945D008FE39FE10197C8
:1001B000F1F700C0000060E086E00E945D005B9AFD
:0A01C0005B9A08950895F894FFCFAC
:00000001FF
