:100000000C945E010C947F010C947F010C947F0191
:100010000C947F010C947F010C947F010C947F0160
:100020000C947F010C947F010C947F010C947F0150
:100030000C947F010C947F010C947F010C947F0140
:100040000C947F010C947F010C947F010C947F0130
:100050000C947F010C947F010C947F010C94572029
:100060000C947F010C947F010C947F010C947F0110
:100070000C947F010C947F010C947F010C947F0100
:100080000C947F010C947F010C947F010C947F01F0
:100090000C947F010C947F010C947F010C947F01E0
:1000A0000C947F010C947F010C947F010C947F01D0
:1000B0000C947F010C947F010C947F010C947F01C0
:1000C0000C947F010C947F010C947F010C947F01B0
:1000D0000C947F010C947F010C947F010C947F01A0
:1000E0000C947F01BF1ABF1ABF1ABF1A6A1A6A1A84
:1000F0006A1A7F1A7F1A7F1A941A941A941AA91AE4
:10010000A91AA91A3C1B3C1B3C1B3C1BD01AD91A30
:10011000E21AEB1AF41AFD1A061B0F1B181B211BFF
:100120002A1B331B05A84CCDB2D44EB93836A902D0
:100130000C50B9918688083CA6AAAA2ABE000000E5
:10014000803F0C946A1A0C94941A0C9443050C94F6
:10015000181B0C94BF1A0C94DB050C94D60A0C9453
:100160000F1B0C942A1B0C94FD050C94331B0C9450
:100170000C070C94A6060C94061B0C9423050C94F7
:10018000A91A0C9468050C94FD1A0C945B050C9448
:100190003C1B0C94EB070C94F41A0C9432050C9451
:1001A000EB1A0C94D91A0C94E21A0C948E050C9448
:1001B000D01A0C947F1A0C94211B6E616E00696E2C
:1001C000660000407A10F35A00A0724E1809001021
:1001D000A5D4E80000E87648170000E40B540200BC
:1001E00000CA9A3B000000E1F505000080969800E7
:1001F000000040420F000000A08601000000102710
:1002000000000000E803000000006400000000009F
:100210000A00000000000100000000002C76D888D1
:10022000DC674F0823DFC1DFAE59E1B1B796E5E3E4
:10023000E453C63AE651997696E8E6C28426EB89FD
:100240008C9B62ED407C6FFCEFBC9C9F40F2BAA59A
:100250006FA5F490055A2AF75C936B6CF9676DC132
:100260001BFCE0E40D47FEF520E6B500D0ED902E36
:100270000300943577050080841E080000204E0A94
:10028000000000C80C333333330F986E12831141D2
:10029000EF8D2114893BE65516CFFEE6DB18D1849D
:1002A0004B381BF77C1D901DA4BBE42420328472C4
:1002B0005E228100C9F124ECA1E53D2711241FBE77
:1002C000CFEFD1E2DEBFCDBF00E00CBF14E0A0E075
:1002D000B2E0EEE4FBE400E00BBF02C007900D9239
:1002E000A638B107D9F72AE0A6E8B4E001C01D920C
:1002F000A83FB207E1F70E941A050C94A5250C94BB
:1003000000002F923F924F925F926F927F928F9256
:100310009F92AF92BF92CF92DF92EF92FF920F9394
:100320001F93CF93DF93CDB7DEB761970FB6F894E5
:10033000DEBF0FBECDBF7C013B016A01FC0117820D
:100340001682838181FF37C39E012F5F3F4F490192
:10035000F7019381F30193FD859193FF81913F0113
:10036000882309F424C3853239F493FD859193FFE2
:1003700081913F01853239F4B70190E00E947224E7
:1003800056016501E5CF10E0312C20E02032A0F4C9
:100390008B3269F030F4803259F0833269F4206195
:1003A0002CC08D3239F0803339F4216026C02260B0
:1003B000246023C0286021C027FD27C030ED380FFE
:1003C0003A3078F426FF06C0FAE01F9F300D112462
:1003D000132F13C08AE0389E300D1124332E206273
:1003E0000CC08E3221F426FDE2C2206406C08C3699
:1003F00011F4206802C0883641F4F30193FD859121
:1004000093FF81913F018111C1CF9BEB980F9330F6
:1004100018F42061805E06C09BE9980F933008F0C5
:1004200066C12F7E26FF16E02F73522E853619F4F3
:100430002064522E08C0863621F4922F9068592EDF
:1004400002C01111115057FE07C01C3350F4222472
:100450002394210E27E00BC0183038F027E017E076
:1004600005C027E09CE3292E02C0212F212C560134
:10047000E4E0AE0EB11CF60160817181828193814E
:10048000022DA4010E9484236C0129812C8720FF66
:1004900002C023FF06C051FC06C052FE06C000E2A7
:1004A00005C00DE203C00BE201C000E08C858C703A
:1004B00019F001115DC29EC257FE10C02C0C2C8594
:1004C00024FF04C08A81813309F42A94121474F53C
:1004D00038E0321578F588E0282E2CC056FC2AC06A
:1004E000812F90E08C159D059CF08CEFC8168FEF46
:1004F000D80674F0952D9068592E0AC0E2E0F0E01D
:10050000EC0FFD1FE10FF11D8081803319F41150B4
:100510001111F4CF57FE0EC022242394210E812FF7
:1005200090E0C816D9062CF41C1904C02224239488
:1005300001C010E057FE06C01C141D0434F4C601AF
:10054000019605C085E090E002C081E090E00111D5
:100550000196112331F0212F30E02F5F3F4F820FA2
:10056000931F232D30E08217930714F4381A01C02B
:10057000312C852D897049F4332039F0B70180E2A0
:1005800090E00E9472243A94F7CF002329F0B7013B
:10059000802F90E00E94722453FC09C0332039F070
:1005A000B70180E390E00E9472243A94F7CF57FE9F
:1005B0004DC02601D7FE02C0412C512CC601019628
:1005C000841995099401280F391F3E872D879601BC
:1005D00022193109388B2F87012F10E011950195D1
:1005E00011093FEF4316530629F4B7018EE290E05C
:1005F0000E947224C414D5044CF02F853889241528
:10060000350524F4ED85FE85808101C080E3F1E0AD
:100610004F1A51082D853E852F5F3F4F3E872D870E
:10062000401651062CF0B70190E00E947224D9CFF9
:10063000C414D50441F49A81963320F4953319F407
:100640003C8534FF81E3B70190E04EC08A8181335D
:1006500019F02C852F7E2C87B70190E00E94722420
:10066000111105C054FC18C085E690E017C0B70111
:100670008EE290E00E9472241E5F82E001E0080F8B
:10068000F401E80FF11D8081B70190E00E9472240F
:10069000802F0113F3CFE6CF85E490E0B7010E94ED
:1006A0007224D7FC06C0C114D10441F43C8534FF48
:1006B00005C0D194C194D1088DE201C08BE2B7018D
:1006C00090E00E94722480E3EAE0CE16D1042CF080
:1006D0008F5F9AE0C91AD108F7CFB70190E00E9466
:1006E0007224B701C601C0960E94722456C1833697
:1006F00031F0833779F0833509F058C021C05601B5
:10070000F2E0AF0EB11CF6018081898301E010E0B8
:10071000640114C05601F2E0AF0EB11CF601C080B6
:10072000D18026FF03C0612F70E002C06FEF7FEF22
:10073000C601298B0E9467248C0129892F7715C057
:100740005601F2E0AF0EB11CF601C080D18026FF49
:1007500003C0612F70E002C06FEF7FEFC601298BED
:100760000E945C248C0129892068522E23FD1AC026
:10077000832D90E008171907A8F4B70180E290E0F4
:100780000E9472243A94F4CFF60157FC859157FEEB
:1007900081916F01B70190E00E94722431103A9468
:1007A000015011090115110579F7F7C0843611F0D0
:1007B000893659F5560127FF09C0F4E0AF0EB11C88
:1007C000F60160817181828193810AC0F2E0AF0EEF
:1007D000B11CF60160817181072E000C880B990B0A
:1007E0002F76522E97FF09C0909580957095619550
:1007F0007F4F8F4F9F4F2068522E2AE030E0A40198
:100800000E944725C82EC8183FC0022F853721F403
:100810000F7E2AE030E01DC0097F8F3691F018F47A
:10082000883559F0C4C0803719F0883711F0BFC03F
:10083000006104FF09C0046007C024FF08C006600F
:1008400006C028E030E005C020E130E002C020E131
:1008500032E0560107FF09C0F4E0AF0EB11CF6010B
:10086000608171818281938108C0F2E0AF0EB11C7A
:10087000F6016081718180E090E0A4010E9447252B
:10088000C82EC8180F77502E56FE0BC0052D0E7FB0
:10089000C11650F454FE0AC052FC08C0052D0E7E4D
:1008A00005C0DC2C052D03C0DC2C01C0D12E04FFBB
:1008B0000DC0FE01EC0DF11D8081803311F4097E25
:1008C00009C002FF06C0D394D39404C0802F867859
:1008D00009F0D39403FD11C000FF06C0D31488F4BF
:1008E0003C0C132D1D190EC0D31460F4B70180E227
:1008F00090E00E947224D394F7CFD31418F43D18DB
:1009000002C01C2D312C04FF10C0B70180E390E021
:100910000E94722402FF17C001FD03C088E790E027
:1009200002C088E590E0B7010CC0802F867859F0AE
:1009300001FF02C08BE201C080E207FD8DE2B7013A
:1009400090E00E947224C11638F4B70180E390E071
:100950000E9472241150F7CFCA94F401EC0DF11DDE
:100960008081B70190E00E947224C110F5CF15C0BC
:10097000F4E0F31560F584E0381A53FE1FC001114E
:1009800027C03C8533FF2AC00AEB11E0852D80711A
:10099000582EF8018491811124C0332009F4F1CC40
:1009A000B70180E290E00E9472243A94F6CFF701FA
:1009B0008681978126C08FEF9FEF23C0B70180E229
:1009C00090E00E9472243A943110F8CFD8CF312CA5
:1009D000B701802F90E00E947224D3CF0EEB11E07C
:1009E000D5CF51108052B70190E00E9472240F5F62
:1009F0001F4FCFCF23E0231510F483E0BDCF312C60
:100A0000C0CF61960FB6F894DEBF0FBECDBFDF91A9
:100A1000CF911F910F91FF90EF90DF90CF90BF90FB
:100A2000AF909F908F907F906F905F904F903F908E
:100A30002F9008950E949E180E94E00A0E94AA1812
:100A40000E94E40AFBCF0E94841180E692E09F930B
:100A50008F931F920E946A11109268070F900F9057
:100A60000F9008950E9484118EE692E09F938F93D9
:100A70001F920E946A1110926707109272070F90DE
:100A80000F900F9008950E9484118DE792E09F933C
:100A90008F931F920E946A11109273078FEF8093B9
:100AA00069071092710710926B0710926A070F90F6
:100AB0000F900F9008950E94841189E892E09F930F
:100AC0008F931F920E946A110F900F900F900895BC
:100AD0000E94841183EB92E09F938F931F920E9458
:100AE0006A1122E044E050E060E372E080E00E949E
:100AF0000E1D81E00E94F91C20E044E050E060E21D
:100B000072E082E00E940E1D62E080E00E94CC0D47
:100B1000109266070F900F900F9008950E94841115
:100B200084E992E09F938F931F920E946A1122E0C2
:100B300044E050E060E172E080E00E940E1D22E09F
:100B400044E050E060E072E081E00E940E1D1092EF
:100B50006C070F900F900F9064E080E00C94CC0D28
:100B6000E0916F07F0917007EE0FFF1FE05CFD4F03
:100B70000190F081E02D199420916F07309170075A
:100B800030936E0720936D079093700780936F07E3
:100B9000880F991FFC01E45BFD4F0190F081E02D6F
:100BA00019948FEF9FEF90936E0780936D0780E00D
:100BB00090E00C94BC0580E00E94181C882349F04A
:100BC00081E00E94181C882321F081E090E00C94C1
:100BD000BC0568E080E00E943A0C882319F085EAA1
:100BE00092E002C082EB92E09F938F931F920E944B
:100BF0006A110F900F900F90089580916C0787FFF6
:100C000024C080E00E940B1C882319F08EEB92E038
:100C100002C088EC92E09F938F9381E08F930E94B3
:100C20006A110F900F900F9081E00E94D11B8823D2
:100C300019F010926C07089580E00E94181C882318
:100C400009F483C080E090E06EC081E00E94D11B77
:100C5000882321F08FEF80936C07089585E00E9430
:100C6000F81B882329F080916C078F5F80936C07B5
:100C700084E00E94F81B882329F080916C07815042
:100C800080936C0780916C0787FF03C083E080939B
:100C90006C0780916C07082E000C990B97FF03C01E
:100CA000919581959109837080936C07823049F109
:100CB0008330D9F1813099F08EEC92E09F938F933D
:100CC00081E08F930E946A1180E00E94D11B0F90F7
:100CD0000F900F908823C9F183E090E024C02FED9E
:100CE00032E03F932F938F930E946A1180E00E941D
:100CF000D11B0F900F900F90882339F182E090E084
:100D000012C08DEE92E09F938F9381E08F930E94AB
:100D10006A1180E00E94D11B0F900F900F908823E2
:100D2000A1F085E090E00C94BC058AEF92E09F93DF
:100D30008F9381E08F930E946A1180E00E94D11B03
:100D40000F900F900F90811185CF08950E94F60AA1
:100D500060E20E943A0C882321F081E080936807CA
:100D6000089581E00E94D11B882319F081E090E072
:100D700050C085E00E94F81B882329F08091680705
:100D80008F5F8093680784E00E94F81B882329F016
:100D9000809168078150809368078091680787FF7A
:100DA00003C081E08093680780916807082E000CDB
:100DB000990B97FF03C0919581959109817080935C
:100DC00068078130A9F081E093E09F938F9381E0E1
:100DD0008F930E946A1180E00E94D11B0F900F90A8
:100DE0000F908823C1F00E94F60A60E20C94CC0DAB
:100DF0002BE033E03F932F938F930E946A1180E0A2
:100E00000E94D11B0F900F900F90882321F084E057
:100E100090E00C94BC050895EF92FF920F931F93FE
:100E2000CF93DF931F92CDB7DEB781E00E94D11B35
:100E3000882359F081E090E00F90DF91CF911F91CE
:100E40000F91FF90EF900C94BC0585E00E94F81B79
:100E5000882329F0809167078F5F8093670784E07C
:100E60000E94F81B882329F08091670781508093A6
:100E700067078091670787FF03C083E08093670758
:100E800080916707082E000C990B97FF03C091957E
:100E90008195910983708093670780E00E94D11B40
:100EA000882331F09091720781E08927809372073F
:100EB00080916707811115C080917207811102C06E
:100EC00080E201C08DE21F928F938BE193E09F93AC
:100ED0008F931F920E946A110E94F60A0E943E0D93
:100EE00016C0813021F580917207811102C080E225
:100EF00001C08DE21F928F938DE293E09F938F93B9
:100F00001F920E946A110E94F60A0E94360D2091DB
:100F1000720729830E94F60A298143E062E00E9459
:100F2000C30C0F900F900F900F900F902BC082303A
:100F3000A9F480917207811102C080E201C08DE2A4
:100F40001F928F938FE393E09F938F931F920E9442
:100F50006A110E94F60A0E943A0DD9CF833091F4AB
:100F60000E94F60A0E943E0D81E593E09F938F93C5
:100F70001F920E946A110E94F60A0E94420D0F9071
:100F80000F900F900E94F60A0E94141FF62EE72E73
:100F9000182F092F0E94F60A0E94061F0F931F9315
:100FA000EF92FF929F938F937F936F938BE593E0E4
:100FB0009F938F9381E08F930E946A110FB6F894EC
:100FC000DEBF0FBECDBF0F90DF91CF911F910F916C
:100FD000FF90EF900895CF92DF92EF92FF920F93E0
:100FE0001F93CF93DF9300D01F92CDB7DEB78091D0
:100FF000730787FF51C08BE693E09F938F931F92F7
:101000000E946A1182E00E94D11B0F900F900F90F6
:10101000882321F081E080936B0706C083E00E9463
:10102000D11B811110926B0780916B07882319F0F7
:1010300087E793E002C08BE793E09F938F9381E073
:101040008F930E946A110F900F900F9081E00E9481
:10105000D11B882319F081E08093730780E00E9400
:10106000D11B882309F495C280916B07882321F056
:101070000E94F60A0E94A20C82E090E00F900F906E
:101080000F900F90DF91CF911F910F91FF90EF90F4
:10109000DF90CF900C94BC05811162C081E00E946A
:1010A000D11B8111E9CF0E94F60A0E94440C8823CB
:1010B00009F446C080916A07811102C08EE401C024
:1010C00083E51F928F938FE793E09F938F931F92F7
:1010D0000E946A110E94F60A0E94540C0E945E0C43
:1010E000182F0E94F60A0E944D0C0E945E0C1F925F
:1010F0001F931F928F9380E993E09F938F9311E04A
:101100001F930E946A1182E00E94D11B0FB6F894CF
:10111000DEBF0FBECDBF882319F010936A0706C04B
:1011200083E00E94D11B811110926A0780E00E9427
:10113000D11B882309F42DC280916A0781110CC04C
:101140000E94F60A0E944D0C8C010E94F60A0E9431
:10115000540CB8010E94900C81E08093730719C26F
:10116000813009F016C20E94F60A0E944D0C6C01F3
:1011700080916907811141C10E94D11B882321F010
:101180008FEF8093690705C081E00E94D11B811118
:10119000F7CF80917107F60139E08302E00DF11D70
:1011A000112481E0808385E00E94F81B8823C1F030
:1011B00080917107860199E08902000D111D1124AB
:1011C00020E030E040E85FE3F801658176818781C7
:1011D00090850E94BE20F80165837683878390877F
:1011E00084E00E94F81B109171078823B1F076010A
:1011F000F9E01F02E00CF11C112420E030E040E88F
:101200005FE3F70165817681878190850E94BD202B
:10121000F7016583768387839087960189E01802BA
:10122000200D311D1124890120E030E0A901F801D1
:1012300065817681878190850E942A2187FF05C07C
:10124000F801158216821782108620E030E046E110
:1012500053E4F80165817681878190850E9482221E
:1012600018160CF044C085E00E94F81B8823E9F0B2
:1012700085E00E94181C8823C1F0809171078601C7
:10128000F9E08F02000D111D112420E030E048EE3E
:1012900051E4F80165817681878190850E94BE20A6
:1012A000F801658376838783908784E00E94F81B2A
:1012B0008823E9F084E00E94181C8823C1F0809103
:1012C00071078601F9E08F02000D111D112420E045
:1012D00030E048EE51E4F8016581768187819085A0
:1012E0000E94BD20F801658376838783908782E022
:1012F0000E94181C811105C083E00E94181C21E087
:10130000811120E029830E94F60A298143E062E0EE
:101310000E94C30C80917107082E000C990B019656
:101320009F938F9381EA93E09F938F931F920E94E4
:101330006A1180917107F60129E08202E00DF11D2A
:101340001124658176818781908540E00E94F80AAA
:101350009F938F9380EB93E09F938F9311E01F9364
:101360000E946A110E94F60A0E9401140FB6F894B6
:10137000DEBF0FBECDBF882309F40BC1809171077A
:101380007601F9E08F02E00CF11C11240E94F60AAC
:101390000E949413F7016183728383839483809105
:1013A0007107F60129E08202E00DF11D112465812B
:1013B00076818781908540E00E94F80A209171072C
:1013C0009F938F93F60139E02302E00DF11D112464
:1013D00084818F9383818F9382818F9381818F9377
:1013E0008DEB93E09F938F931F930E946A110FB62A
:1013F000F894DEBF0FBECDBFCCC085E00E94F81BC5
:10140000882329F0809171078F5F8093710784E0B2
:101410000E94F81B882329F08091710781508093E6
:1014200071078091710787FF03C08FE08093710778
:1014300080917107082E000C990B97FF03C09195BE
:10144000819591098F708093710785E00E94F81B48
:10145000882301F10E94F60A0E9401148823F9F002
:1014600080917107F60199E08902E00DF11D1124C8
:10147000418152816381748149835A836B837C8368
:101480000E94F60A20E049815A816B817C810E948A
:10149000771305C084E00E94F81B8111DBCF809197
:1014A0007107F60129E08202E00DF11D11249081FF
:1014B000911102C09EE401C093E51F929F93082EF4
:1014C000000C990B01969F938F938AEC93E09F9366
:1014D0008F931F920E946A1180917107F60139E083
:1014E0008302E00DF11D112465817681878190854D
:1014F00040E00E94F80A209171079F938F93F601B4
:1015000089E02802E00DF11D112484818F938381ED
:101510008F9382818F9381818F938DEB93E09F9343
:101520008F9311E01F930E946A1182E00E94D11BE9
:101530000FB6F894DEBF0FBECDBF882351F0809167
:101540007107F60129E08202E00DF11D11241083DC
:101550000EC083E00E94D11B882349F0809171075F
:10156000F60139E08302E00DF11D1124108280E0C4
:101570000E94D11B882319F0109269070AC081E0EC
:101580000E94D11B882329F08FEF8093730710925C
:101590006B070F900F900F900F90DF91CF911F91DD
:1015A0000F91FF90EF90DF90CF90089581E00E941F
:1015B000D11B882321F081E090E00C94BC050895B4
:1015C0000E94EF0B0C94D105CF92DF92EF92FF9225
:1015D0000E942D196B017C010E946611C701B601A2
:1015E000FF90EF90DF90CF900C94B00580E00895CD
:1015F0008F929F92AF92BF92CF92DF92EF92FF9223
:10160000CF936B017C01C42F20E030E041E655E42C
:101610000E94822287FD41C020E030E041E655E48F
:10162000C701B6010E942F210E94A1214B015C013C
:1016300080E19EE0889DB001899D700D989D700DA0
:10164000112480E090E00E94D0219B01AC01C701F1
:10165000B6010E94BD2020E030E040E752E40E9445
:101660002F210E94A1217F936F939F928F928DEDE6
:1016700093E09F938F931F928AE08F9384E797E084
:101680009F938F930E94A2248DB79EB70A960FB6A0
:10169000F8949EBF0FBE8DBF96C020E030E048ECAE
:1016A00052E4C701B6010E94822287FF02C0C11125
:1016B00038C020E030E040E752E4C701B6010E94A4
:1016C0002F210E94A1214B015C018CE3889DB00178
:1016D000899D700D112480E090E00E94D0219B0133
:1016E000AC01C701B6010E94BD200E94A1217F93D9
:1016F0006F939F928F9287EE93E09F938F931F92A9
:101700008AE08F9384E797E09F938F930E94A224AF
:101710008DB79EB70A960FB6F8949EBF0FBE8DBFC9
:1017200052C0C701B6010E94A1214B015C0180E0BB
:1017300090E00E94D0219B01AC01C701B6010E943C
:10174000BD2020E030E048EC52E40E9487220E9455
:10175000A121CB01C130F1F46AE070E00E94A12028
:101760007F936F939F928F9281EF93E09F938F93DC
:101770001F928AE08F9384E797E09F938F930E9454
:10178000A2248DB79EB70A960FB6F8949EBF0FBEDF
:101790008DBF19C07F936F939F928F928AEF93E0D2
:1017A0009F938F931F928AE08F9384E797E09F9394
:1017B0008F930E94A2248DB79EB70A960FB6F89415
:1017C0009EBF0FBE8DBF84E797E0CF91FF90EF9053
:1017D000DF90CF90BF90AF909F908F900895E6E8F4
:1017E000F4E081E090E091838083128286E083833D
:1017F00087E0848389E997E0968385838EE797E085
:101800000E943619E0E8F7E021E0218F88E491EEAC
:10181000AAE3BFE3828F938FA48FB58F80E090E01F
:10182000A0EAB0E4868F978FA0A3B1A324AB4CEEBF
:1018300051E56CE071E445AB56AB67AB70AF81AF7F
:1018400092AFA3AFB4AF2093EA0742E558EB66E846
:1018500071E44093EB075093EC076093ED077093AE
:10186000EE078093EF079093F007A093F107B093F2
:10187000F207089527EB829FC0011124FC01EA576B
:10188000FB4F80818623089527EB829FC00111249E
:10189000FC01EA57FB4F8289089527EB829FC00124
:1018A000112483559B4F089527EB829FC00111247B
:1018B000FC01EA57FB4F858196810895FC019C014C
:1018C00020573F4F80E0908191118F5F3996E2174A
:1018D000F307C9F70895EF92FF921F93CF93DF9319
:1018E000EC017C0180E9E80EF11C10E0888188237E
:1018F00061F020E030E040E85FE36D817E818F8120
:1019000098850E94822287FF1F5F2996CE15DF05EA
:1019100069F7812FDF91CF911F91FF90EF9008958C
:101920009B01BC0160577F4F49E0FC01D901019048
:101930000D924A95E1F70996275F3F4F8617970763
:1019400099F70895CF93DF9397EB899FA001112416
:1019500020E030E0EA01C557DB4FA881B981A20F32
:10196000B31FF901E40FF51F89E0E355FB4F019028
:101970000D928A95E1F7275F3F4F2039310569F7CE
:10198000DF91CF910895FF920F931F93CF93DF9331
:1019900000D01F92CDB7DEB7062FF42E122F862F60
:1019A0000E94D11B882339F011110BC020E030E0D8
:1019B00040E85FE30AC0802F0E94DE1B8111F4CF54
:1019C00010C020E030E040E05FE329833A834B839E
:1019D0005C830E94F60A29813A814B815C8160E038
:1019E00021C08F2D0E94D11B882339F011110BC00B
:1019F00020E030E040E85FE30AC08F2D0E94DE1B4C
:101A00008111F4CF11C020E030E040E05FE3298392
:101A10003A834B835C830E94F60A29813A814B8189
:101A20005C8161E00E949912802F0E94EB1B882349
:101A300071F00E94F60A63E00F900F900F900F90E4
:101A4000DF91CF911F910F91FF900C942C138F2D4C
:101A50000E94EB1B8111EDCF0F900F900F900F9014
:101A6000DF91CF911F910F91FF90089561E070E099
:101A70000C9486136FEF7FEF0C94861360E070E098
:101A80000C94861362E00C942C13CF93C82F0E9401
:101A9000E41387EBC89FF0011124EA57FB4F8081C4
:101AA00080FF03C081E090E009C081FF03C082E0B5
:101AB00090E004C082FF04C084E090E091838083C2
:101AC000CF910895CF92DF92EF92FF921F93CF9321
:101AD000DF936C01162F7A01C62FF701D081C03138
:101AE000B8F4CD0FF60189E0C89FE00DF11D112477
:101AF0008081882391F320E030E040E85FE3658156
:101B00007681878190850E94822287FF21C0E5CF60
:101B10008D2F81958083C12FC031B8F4CD1BF60184
:101B200089E0C89FE00DF11D112480818823A1F375
:101B300020E030E040E85FE3658176818781908531
:101B40000E94822287FF04C0E7CFF701D083C12F14
:101B50008C2FDF91CF911F91FF90EF90DF90CF906E
:101B60000895FC01118A80E090E0A0E8BFEB838B30
:101B7000948BA58BB68B878B908FA18FB28F81E0D2
:101B8000828B24E034E03F932F938F930E946A115D
:101B90000F900F900F900895FF920F931F93CF9384
:101BA000DF931F92CDB7DEB7F82E65FF15C087EB28
:101BB000F89E800111240A571B4FF801808185FD92
:101BC00036C0C80169830E94B10DF80180819181FE
:101BD000806291838083698160FF0AC087EBF89EF1
:101BE000F0011124EA57FB4F81E090E0918380835C
:101BF00061FF0AC087EBF89EF0011124EA57FB4F02
:101C000082E090E09183808362FF11C08F2D0E945B
:101C1000450D63E08F2D0E942C1387EBF89EF00199
:101C20001124EA57FB4F84E090E0918380830F906A
:101C3000DF91CF911F910F91FF9008954F925F9286
:101C40006F927F928F929F92AF92BF92DF92EF92AC
:101C5000FF920F931F93CF93DF93EC012A013B0177
:101C60008F88988CA98CBA8C20E030E0A901C5013E
:101C7000B4010E94822287FD0AC0A3019201C5011E
:101C8000B4010E94BD206F8B788F898F9A8F19893C
:101C9000111124C08A810E94E01E8A810E9494133F
:101CA0006B8B7C8B8D8B9E8B20E030E040E05FE384
:101CB00061E08A810E9499128A810E94E41380E087
:101CC00090E0A0E0BFE38F8B988FA98FBA8F81E05F
:101CD000898B24E134E03F932F9374C0113031F5A8
:101CE0008A810E94A7139F772DEC3CEC4CEC5DE3BE
:101CF0000E942A2187FFE5C020E030E0A9016F891A
:101D0000788D898D9A8D0E942A2187FFDAC067E03D
:101D10008A810E942C1380E090E0A0E8BEE38F8BC4
:101D2000988FA98FBA8F82E0898B80C1123009F019
:101D30004DC020E030E0A9016F89788D898D9A8DA2
:101D40000E942A2187FFBDC08B889C88AD88BE88F1
:101D50008A810E9494139B01AC01C501B4010E94C9
:101D6000BD2020E030E040E450E40E94BD206B8BB9
:101D70007C8B8D8B9E8B8A810E94E01E8A810E94C3
:101D8000941320E030E040E85EE30E94BE206B8FB9
:101D90007C8F8D8F9E8F2AE939E949E95FE360E006
:101DA0008A810E94991280E090E0A0E0BFE38F8BCF
:101DB000988FA98FBA8F83E0898B8FE194E09F93EE
:101DC0008F9381E08F930E946A1178C01330C9F518
:101DD0008A810E9494132B893C894D895E890E94D7
:101DE0008222181644F420E030E040E05FE360E037
:101DF0008A810E9499128A810E94A7139F772DECF5
:101E00003CEC4CEC5DE30E942A2187FF5AC020E0A5
:101E100030E0A9016F89788D898D9A8D0E942A21E1
:101E200087FF4FC067E08A810E942C1380E090E01A
:101E3000A0E8BEE38F8B988FA98FBA8F84E0898B3F
:101E400040C0143009F03FC020E030E0A9016F89A4
:101E5000788D898D9A8D0E942A2187FF32C08A81D0
:101E60000E94941320E030E040E85EE30E94BD2031
:101E70006F8F78A389A39AA32B8D3C8D4D8D5E8D9A
:101E80000E94BD206BA37CA38DA39EA385E0898BBC
:101E900087E294E09F938F9381E08F930E946A1171
:101EA0004B8D5C8D6D8D7E8D1AE9E12E19E9F12E39
:101EB00009E91FE320E08A810E9432130F900F90FE
:101EC0000F9011E0B3C0153009F0A1C08A810E94C3
:101ED000BA138823B1F320E030E040EC50E46BA16A
:101EE0007CA18DA19EA10E942F212B013C018E017E
:101EF000095D1F4FE12CF12CDD24D394B7010F2C89
:101F0000000C880B990B0E94D2214B015C019B01B4
:101F1000AC01C301B2010E948222F8011816ACF490
:101F2000D08220E030E040EC50E4C501B4010E94D2
:101F3000872220E030E040E85EE30E94BE20F80106
:101F4000618372838383948305C01082118212821D
:101F5000138214821582168217821086FFEFEF1A01
:101F6000FF0A075F1F4F80E1E816F10439F6FA8097
:101F70008BA09CA0ADA0BEA0E4E0FE9E8001112439
:101F8000F801E058F84FA5019401618972898389AD
:101F900094890E94BD209F7720E030E040E85FE315
:101FA0000E942A2187FD1A8A4B8D5C8D6D8D7E8D56
:101FB000F801E058F84F41835283638374830F8D97
:101FC00018A129A13AA10187128723873487818A22
:101FD000928AA38AB48A8F2D0E94CB138CED93E052
:101FE0009F938F9381E08F930E946A11198A80E0FA
:101FF00090E0A0E8BFEB8B8B9C8BAD8BBE8B8F8B67
:10200000988FA98FBA8F0F900F900F900EC08FEFFF
:10201000898B80E090E0A0E8BFEB8B8B9C8BAD8B35
:10202000BE8B8F8B988FA98FBA8F10E0812FDF9195
:10203000CF911F910F91FF90EF90DF90BF90AF90E5
:102040009F908F907F906F905F904F9008958F92A8
:102050009F92AF92BF92CF92DF92EF92FF92CF9377
:10206000DF936B017C01EA018881998180FF0EC0BA
:1020700066E08A81DF91CF91FF90EF90DF90CF9063
:10208000BF90AF909F908F900C942C1381FF03C151
:1020900083FD84C08D819E810E946B0C81110CC0D8
:1020A00083E394E09F938F9381E08F930E946A1162
:1020B0000F900F900F90FFC08B810E94361C8823D9
:1020C00021F163E08A810E942C1380E090E0A0E47B
:1020D000B0E48F839887A987BA8783E494E09F93BD
:1020E0008F9381E08F930E946A110F900F900F9051
:1020F0008A81DF91CF91FF90EF90DF90CF90BF90DA
:10210000AF909F908F900C94450D8F809884A984F8
:10211000BA8420E030E0A901C501B4010E94822206
:10212000181694F4A7019601C501B4010E94BD20C0
:102130006F83788789879A8741E00E94F80A9F9386
:102140008F9383E594E074C0888185FDA8C08A815F
:102150000E94011481110EC060E28A81DF91CF914B
:10216000FF90EF90DF90CF90BF90AF909F908F90B7
:102170000C94CC0D1B861C861D861E868FEF8F87C8
:1021800081E0888B80E090E0A0E4B0E48F839887C2
:10219000A987BA878881998188608BC08B810E94CA
:1021A000361C882321F088819981877F82C020E0B6
:1021B00030E0A9016B857C858D859E850E942A2152
:1021C000181654F1AE01415F5F4F68898D819E8181
:1021D0000E94620D888BED81FE8199E0899FE00D60
:1021E000F11D112485819681A781B0858B879C87FD
:1021F000AD87BE87418152816381748121E08A81EC
:10220000DF91CF91FF90EF90DF90CF90BF90AF9094
:102210009F908F900C9477138A810E94BA1381113A
:1022200013C0888990E001969F938F9381E694E094
:102230009F938F9381E08F930E946A110F900F906C
:102240000F900F900F9037C0A70196016B857C858A
:102250008D859E850E94BD206B877C878D879E879C
:1022600041E00E94F80A9F938F93888990E001963D
:102270009F938F9382E794E09F938F9381E08F9356
:102280000E946A118DB79EB707960FB6F8949EBF4D
:102290000FBE8DBF10C084729927849761F4B70177
:1022A000A601CE010E941E0E811105C08881998170
:1022B0008F7D99838883DF91CF91FF90EF90DF909E
:1022C000CF90BF90AF909F908F90089546E854E0D4
:1022D0000C942710CF93DF93CDB7DEB78E8121E426
:1022E000829FC00111249E01275F3F4F4F81588577
:1022F00060E470E08254974F0E940E2581E0809345
:10230000B908DF91CF910895CF93DF93CCEDD3E05F
:10231000DF93CF931F920E946A11DF93CF9381E0E6
:102320008F930E946A110F900F900F900F900F9053
:102330000F90DF91CF910895109842B1982F929508
:102340009F7054E0959F90011124942F937C292B2A
:1023500022B9119A95E09A95F1F70000119822B1EF
:10236000237C34E0839FC0011124822B82B9119A0F
:1023700055E05A95F1F70000119885ED8A95F1F72F
:1023800000000895089A099A81B18C6381B9109868
:10239000119882B1837C82B981E08093B908E0E42E
:1023A000F9E0118A10821092FF081092BE088FE5A2
:1023B0009AEE0197F1F700C0000082B1837C8C6037
:1023C00082B9119A95E09A95F1F7000011988FE182
:1023D0009EE40197F1F700C0000082B1837C8C601D
:1023E00082B9119A95E09A95F1F7000011988FE85B
:1023F00091E00197F1F700C0000082B1837C8C600E
:1024000082B9119A95E09A95F1F7000011988FE141
:102410009EE40197F1F700C0000082B1837C8860E0
:1024200082B9119A95E09A95F1F70000119885ED1F
:102430008A95F1F7000088E20E949C118CE00E94CE
:102440009C1186E00E949C1181E00E949C118FE308
:102450009FE10197F1F700C000000895109A42B182
:10246000982F92959F7054E0959F90011124942F7E
:10247000937C292B22B9119A95E09A95F1F70000E7
:10248000119822B1237C34E0839FC0011124822B58
:1024900082B9119A55E05A95F1F70000119885ED2F
:1024A0008A95F1F700000895CF93DF938091B908E2
:1024B0008823E1F11092B9088EEB98E09F938F93F7
:1024C000C0E8D4E0DF93CF9380E499E09F938F93AB
:1024D0000E94DF248FEF98E09F938F93DF93CF9339
:1024E00081E599E09F938F930E94DF2480E80E940A
:1024F0009C11C0E4D9E08DB79EB70C960FB6F89446
:102500009EBF0FBE8DBF89910E942E1299E0C035EB
:10251000D907C9F780EC0E949C11C1E5D9E08991E7
:102520000E942E1289E0C136D807C9F7DF91CF91FA
:1025300008958F929F92AF92BF92CF92DF92FF92B7
:102540000F931F93CF93DF93E82FF62FCA01B901A2
:102550002F2F2370FC70FF2ECE2FD0E0FE01EE0F48
:10256000FF1FE85AFD4F211117C000811181F801AA
:10257000EC55FF4F118210823896812C912C30E857
:10258000A32E3FE3B32E80829182A282B3826801A0
:1025900020EBC20ED11C1AC0213029F50081118117
:1025A000F801EC55FF4F21E030E03183208338966D
:1025B000812C912C20E8A22E2FEBB22E80829182CA
:1025C000A282B3826801F0EBCF0ED11C2DEC3CEC63
:1025D0004CEC5EE30E948722F60160837183828364
:1025E00093833A9714C080819181FC01EC55FF4F91
:1025F000223019F422E030E002C023E030E03183E1
:1026000020833896108211821282138236971182AB
:102610001082FF20A9F0CC0FDD1FC85ADD4F888142
:102620009981FC01E855FF4FDC01A455BF4F8D9106
:102630009D910D90BC91A02D80839183A283B38343
:10264000DF91CF911F910F91FF90DF90CF90BF90BE
:10265000AF909F908F90089520E030E040E85FE3D6
:102660000C949912AF92BF92DF92EF92FF920F9368
:102670001F93CF93DF93D22EE82FF0E0EE0FFF1FD2
:10268000E85AFD4FC081D181FE01EA54FF4F4083DB
:102690005183628373835E0180EBA80EB11C2DEC25
:1026A0003CEC4CEC5EE3C801B7010E948722F501C7
:1026B0006083718382839383F1E0DF1619F081E0F8
:1026C00090E002C082E090E0FE01EA55FF4F918366
:1026D0008083CC54DF4F19821882DF91CF911F91F4
:1026E0000F91FF90EF90DF90BF90AF900895EF9221
:1026F000FF920F931F93E12CF12C00E81FE30E943F
:1027000032131F910F91FF90EF900895E82FF0E0A2
:10271000EE0FFF1FE85AFD4F0190F081E02DEC54C1
:10272000FF4F718360830895E82FF0E0EE0FFF1FE5
:10273000E85AFD4F0190F081E02DE953FF4F0190E1
:10274000F081E02D60817181828193810895E82F6D
:10275000F0E0EE0FFF1FE85AFD4F0190F081E02DF1
:10276000E753FF4F0190F081E02D608171818281FC
:1027700093810895E82FF0E0EE0FFF1FE85AFD4F18
:102780000190F081E02DE654FF4F81E0908191119E
:1027900001C080E008950F931F93E82FF0E0EE0F43
:1027A000FF1FE85AFD4F80819181FC01E554FF4FE6
:1027B0004083518362837383349600831183228321
:1027C00033831F910F910895E82FF0E0EE0FFF1F64
:1027D000E85AFD4F80819181FC01E554FF4F40E0B4
:1027E00050E06AE774EC40835183628373833496CC
:1027F00040E050E06AE774E440835183628373836E
:102800000895CF93DF93E82FF0E0EE0FFF1FE85A13
:10281000FD4FC081D181FE01E554FF4F20E030E043
:102820004AE754EC60817181828193810E94822207
:10283000181694F4FE01E154FF4FC1E020E030E0AF
:102840004AE754E460817181828193810E942A2148
:1028500087FFC0E08C2F01C080E0DF91CF91089509
:10286000FC01EC55FF4F22E030E0318320833297AA
:10287000318320833A961082118212821382349718
:10288000108211821282138238964DEC5CEC6CEC53
:102890007EE340835183628373833A97118210826F
:1028A0007D961082118212821382389740E050E0A8
:1028B0006AE774EC4083518362837383349640E00B
:1028C00050E06AE774E44083518362837383089520
:1028D000EF920F931F93CF93DF938AE4E82E05E0E6
:1028E00029E031E04BE051E06AE071E082E699E0F6
:1028F0000E949A199AE2E92E03E029E031E04BE0C8
:1029000051E06AE071E082E799E00E949A192AE4B6
:10291000E22E07E029E031E04BE051E06AE071E0AF
:1029200082E899E00E949A1939E4E32E01E029E057
:1029300031E04BE051E06AE071E082E999E00E9409
:102940009A1921E030E04FE153E06FE070E082EA55
:1029500099E00E940F1A4AE4E42E04E029E031E0F5
:102960004BE051E06AE071E083EB99E00E949A1934
:102970005AE2E52E02E029E031E04BE051E06AE066
:1029800071E083EC99E00E949A196AE4E62E06E071
:1029900029E031E04BE051E06AE071E083ED99E03D
:1029A0000E949A1979E4E72E01E029E031E04BE03A
:1029B00051E06AE071E083EE99E00E949A1921E00B
:1029C00030E04FE153E06EE070E083EF99E00E9469
:1029D0000F1AC8E5D2E0888199810E9430140881DD
:1029E000198180E00E94221FF801E953FF4F918373
:1029F00080830990D881C02D80E00E942C1FC7538E
:102A0000DF4F99838883DF91CF911F910F91EF90D2
:102A100008952F923F924F925F926F927F928F9282
:102A20009F92AF92BF92CF92DF92EF92FF920F935D
:102A30001F93CF93DF93CDB7DEB72E970FB6F894E1
:102A4000DEBF0FBECDBF6B877C878D879E871A0147
:102A50009A012A553F4F38872F83D9010D90BC9199
:102A6000A02DBE83AD83CD010197FA01E953FF4F3D
:102A7000FA87E987029708F0BDC00081118171973C
:102A800080809180A280B380A5019401D8016D91CE
:102A90007D918D919C910E94BD206B017C01E894F9
:102AA000F7F82DEC3CEC4CEC5DE3C701B6010E945D
:102AB0002A2187FD2CC020E030E040EC5FE3C70115
:102AC000B6010E942A2187FF1BC03101B0EB6B0EBB
:102AD000711C20E030E040E85FE3F3016081718128
:102AE000828193810E94822218168CF480E090E00B
:102AF000A0E8BFE3F30180839183A283B38307C07F
:102B0000412C512C90E8692E9FE3792E08C08DEC62
:102B1000482E8CEC582E8CE4682E8EE3782ED8014B
:102B20008D919D910D90BC91A02D89839A83AB834B
:102B3000BC839C01AD01C501B4010E9482228101C8
:102B400004551F4F18165CF4F101EC55FF4F11822C
:102B50001082F801408251826282738219C02981F9
:102B60003A814B815C81C501B4010E942A2187FF13
:102B70000FC081E090E0F101EC55FF4F918380831D
:102B8000D301C201B058F80180839183A283B3833B
:102B90005101FAEBAF0EB11CD5011C922AE037EDC2
:102BA00043EA5CE3C701B6010E942A2187FF22C0E5
:102BB00083E090E0F101EC55FF4F918380833297E1
:102BC00091838083F8011082118212821382F101B5
:102BD000E855FF4F10821182128213822D813E81AF
:102BE0002130310521F4AF81B8851D921C9281E01E
:102BF000F5018083A985BA85ED91FC918080918053
:102C0000A280B380F101E554FF4F40805180628083
:102C1000738020E030E040EC5FE3C501B4010E9426
:102C2000BD20A30192010E942A21F101E455FF4F2A
:102C30007F0191012E553F4F3A8329838101085529
:102C40001F4F87FF3DC020E030E0A9016081718106
:102C5000828193810E942A2187FF32C08DEC9CECF7
:102C6000ACECBDEBF70180839183A283B383A30116
:102C70009201C501B4010E94BD202AE037ED43EA6C
:102C80005CE30E942A2187FF4AC083E090E0F101C3
:102C9000EC55FF4F91838083A981BA818D939C93DA
:102CA000F7011082118212821382D8011D921D92A7
:102CB0001D921C921397EF81F885118210822FC00C
:102CC000F101E154FF4F408051806280738020E029
:102CD00030E040EC5FE3C501B4010E94BE20A301D7
:102CE00092010E9482221816D4F420E030E0A9015B
:102CF000D7016D917D918D919C910E948222181631
:102D000074F48DEC9CECACECBDE3F7018083918313
:102D1000A283B383A5019401C301B201ACCFD70153
:102D20004D905D906D907C90F801C080D180E280E4
:102D3000F380A7019601C301B2010E94BD204B019F
:102D40005C012B853C854D855E850E942F219F77F8
:102D50000E94A1216115710579F4F101EC55FF4F35
:102D600080819181A981BA818D939C93F8014082E1
:102D70005182628273821AC080E090E00E94D0216A
:102D80009B01AC01C501B4010E942F2120E030E07D
:102D900040E650E40E948722A70196010E94BE20CF
:102DA000D8016D937D938D939C931397F801C08008
:102DB000D180E280F38020E030E0A901C701B601B4
:102DC0000E94822218162CF4A981BA811D921C92AD
:102DD00019C020E030E0A901C701B6010E942A21F4
:102DE00087FF07C081E090E0E981FA8191838083C9
:102DF00009C0F101EC55FF4F80819181A981BA8111
:102E00008D939C932BED3FE049E450E4C701B6015C
:102E10000E9487222BED3FE049EC5FE30E94BD203A
:102E20000E94F4222B013C01810100551F4F2AE929
:102E300039E949E15EE3F801608171818281938122
:102E40000E94BD204B015C0120E030E040E85FE3E0
:102E5000C301B2010E94BE209B01AC01C501B401B7
:102E60000E94872220E030E040E05FE30E9487225A
:102E70002AE939E949E15EE30E94BE204B015C0189
:102E8000E894B7F8E894F7F820E030E040E45FE336
:102E9000C701B6010E942A2187FD05C020E030E06D
:102EA00040E45FE30CC02DEC3CEC4CE45EE3C70176
:102EB000B6010E942A2118164CF4A7019601C501FB
:102EC000B4010E9487222B013C0103C0412C512CEC
:102ED00032017101F4EBEF0EF11CD7018D919C9141
:102EE00097FF0CC040E050E0BA01C101805C9F4FE9
:102EF0000E94C219C10140960E943A19F7018081CF
:102F00009181181619066CF440E050E0BA01C10135
:102F10008F569F4F0E94C219C1018F599F4F0E9427
:102F20003A19A981BA818D919C910097C1F5F70159
:102F30008081918197FD17C023E333E343E95FE389
:102F4000C501B4010E948722AB01BC01C101805CB4
:102F50009F4F0E94C219C10180960E944C19C10165
:102F600040960E943A19D7018D919C911816190626
:102F70000CF4C5C023E333E343E95FE3C301B201CB
:102F80000E948722AB01BC01C1018F569F4F0E9456
:102F9000C219C1018F589F4F0E943A1993C08130C6
:102FA000910541F5F7018081918197FD0FC0B30133
:102FB000A201C101805C9F4F0E94C219C10180968D
:102FC0000E943A19C10140960E943A19D7018D9189
:102FD0009C91181619060CF492C0B501A401C10108
:102FE0008F569F4F0E94C219C1018F589F4F0E9458
:102FF0004C1968C0039709F048C080E090E0A0E851
:10300000BFE3F80180839183A283B383D7018D91BD
:103010009C9197FD0DC040E050E060E07FE3C1016E
:10302000805C9F4F0E94C219C10140960E944C19BA
:10303000F70180819181181619060CF460C040E0F8
:1030400050E060E07FE3C1018F569F4F0E94C2199C
:10305000C1018F599F4F2E960FB6F894DEBF0FBE59
:10306000CDBFDF91CF911F910F91FF90EF90DF9037
:10307000CF90BF90AF909F908F907F906F905F9018
:103080004F903F902F900C944C1980E090E0A0E876
:10309000BFE3F80180839183A283B38340E050E0D3
:1030A000BA01C101805C9F4F0E94C219C1014096C4
:1030B0000E943A1940E050E0BA01C1018F569F4F7B
:1030C0000E94C219C1018F599F4F2E960FB6F894D6
:1030D000DEBF0FBECDBFDF91CF911F910F91FF904B
:1030E000EF90DF90CF90BF90AF909F908F907F90A8
:1030F0006F905F904F903F902F900C943A192E96BE
:103100000FB6F894DEBF0FBECDBFDF91CF911F91F8
:103110000F91FF90EF90DF90CF90BF90AF909F9076
:103120008F907F906F905F904F903F902F90089579
:1031300040915802509159020C9409150E941B208D
:103140000E94C2110E945B1B0E946A1D0E946814AB
:103150000C94BD1E8F929F92AF92BF92CF92DF923E
:10316000EF92FF920E9428206B017C010E94332085
:103170004B015C018091FC059091FD05A091FE053D
:10318000B091FF05A7019601281B390B4A0B5B0B79
:10319000CA01B9010E94D02120E030E04AE754E49E
:1031A0000E942F216093F4057093F5058093F60536
:1031B0009093F705C092FC05D092FD05E092FE05C4
:1031C000F092FF058092F8059092F905A092FA0519
:1031D000B092FB050E9427206091F4057091F505DF
:1031E0008091F6059091F7050E9454126091F405C4
:1031F0007091F5058091F6059091F7050E94DE1C0F
:103200006091F4057091F5058091F6059091F705B0
:103210000E94A11E6091F4057091F5058091F6055C
:103220009091F7050E9498186091F4057091F5054A
:103230008091F6059091F7050E94DD1F8FE59DE6D0
:103240000197F1F700C00000FF90EF90DF90CF9062
:10325000BF90AF909F908F9008956091F40570910A
:10326000F5058091F6059091F7050895FC0110820F
:1032700011820895DC011396ED91FC9114979081D1
:1032800018968C91892B80830895FC012081213030
:1032900011F40C943A190895DC011396ED91FC9108
:1032A0001497908118968C91809589238083089536
:1032B000FC012081213011F40C944C1908951F93C6
:1032C000CF93DF93EC01162F862F877091F08883C0
:1032D000813039F4E981FA8190818885809589234C
:1032E00007C0823031F4E981FA8190818885892B89
:1032F000808317FF03C081E0898701C0198613FF0F
:1033000003C0CE010E94581914FF03C0CE010E94D1
:10331000451915FF03C0CE010E943A1916FF06C0D9
:10332000CE01DF91CF911F910C944C19DF91CF9179
:103330001F910895EF920F93FC0172836183548370
:10334000438336832583078381E001C0880F0A9574
:10335000EAF780876E2DCF010F91EF900C945F19E3
:10336000FC019185A581B6818085992329F09C91E6
:10337000982381E031F004C09C91982381E009F406
:1033800080E008950F931F93CF93DF9300D01F9297
:10339000CDB7DEB78C019A01AB01DC011C968D9193
:1033A0009C911D971E966D917C911F970497C0F07C
:1033B00080E090E029833A834B835C830E94D02194
:1033C00029813A814B815C810E9487220E94A12140
:1033D000D8011A96ED91FC911B977183608316C0FA
:1033E00080E090E029833A834B835C830E94D02164
:1033F00029813A814B815C810E9487220E94A12110
:10340000D8011A96ED91FC911B9760830F900F9055
:103410000F900F90DF91CF911F910F910895DC01D4
:1034200084E08C931D967C936E931C976430710599
:1034300020F46230710528F017C06031710508F082
:1034400039C12034310571F138F421303105A1F151
:103450002830310529F10895211581E0380721F13F
:103460002115344019F1089520343105E9F058F45C
:1034700028303105A9F020323105A1F02130310585
:1034800009F018C119C0211581E0380789F021150C
:1034900084E0380779F02038310509F00BC106C007
:1034A00082E00BC083E009C084E007C085E005C06E
:1034B00086E003C087E001C081E0982F9861603109
:1034C000710508F0F7C0FB018827EE58FF4F8F4FBA
:1034D0000C94B520809180008C7F82608093800066
:1034E00080918100807E892B809381008091820071
:1034F0008F71809382005093870040938600809163
:1035000090008C7F82608093900080919100807EFB
:10351000892B80939100809192008F71809392000B
:1035200050939700409396008091A0008C7F82601A
:103530008093A0008091A100807E892B8093A100C0
:103540008091A2008F718093A2005093A7004093B6
:10355000A600809120018C7F826080932001809161
:103560002101807E892B80932101809122018F711E
:1035700080932201509327014093260102C04FEF10
:1035800050E01F965C934E931E976031710508F0D2
:1035900091C0FB018827EE57FF4F8F4F0C94B52049
:1035A000809180008F7380688093800088E890E02D
:1035B00077C0809180008F7C8062809380008AE851
:1035C00090E06EC080918000837F8860809380004F
:1035D0008CE890E065C0809190008F738068809344
:1035E000900088E990E05CC0809190008F7C8062C0
:1035F000809390008AE990E053C080919000837F8F
:103600008860809390008CE990E04AC08091A0008F
:103610008F7380688093A00088EA90E041C0809119
:10362000A0008F7C80628093A0008AEA90E038C07E
:103630008091A000837F88608093A0008CEA90E056
:103640002FC0809120018F7380688093200188E2D1
:1036500091E026C0809120018F7C806280932001C0
:103660008AE291E01DC080912001837F8860809371
:1036700020018CE291E014C06230710561F063308A
:10368000710561F06130710519F087E490E008C0C0
:1036900088E490E005C083EB90E002C084EB90E00A
:1036A0001B969C938E931A9740E050E0BA01CD018F
:1036B0000C94C2190895EF920F93CF93DF93C0E05B
:1036C000D6E01F8A81EBE82E00E026E031E048E0FA
:1036D00051E067E071E082E096E00E949A191FA62F
:1036E00005E026E031E048E051E067E071E08AE182
:1036F00096E00E949A191092470601E026E031E018
:1037000048E051E067E071E082E396E00E949A1998
:1037100010925F0602E026E031E048E051E067E009
:1037200071E08AE496E00E949A191092770603E00D
:1037300026E031E048E051E067E071E082E696E0A3
:103740000E949A1910928F0604E026E031E048E0CA
:1037500051E067E071E08AE796E00E949A19C2E0C2
:10376000C093A70699E4E92E06E02FE230E041E39A
:1037700050E060E370E082E996E00E949A19C093FD
:10378000BF0607E02FE230E041E350E060E370E085
:103790008AEA96E00E949A19DF91CF910F91EF90FB
:1037A000089528E1829FC0011124FC01E050FA4FE6
:1037B00081E09289923009F080E0089528E1829FAB
:1037C000C0011124FC01E050FA4F81E09289983049
:1037D00009F080E0089528E1829FC0011124FC01D6
:1037E000E050FA4F81E09289913009F080E008952D
:1037F00028E1829FC0011124FC01E050FA4F928918
:1038000081E0923031F0983029F0903219F080E068
:1038100008950895089528E1829FC0011124FC01B4
:10382000E050FA4F81E09289923008F480E00895E8
:10383000CF9328E1829FC0011124FC01E050FA4F90
:103840008289823080F0C1E026E636E646E65FE314
:1038500063897489858996890E94822218160CF0E2
:10386000C0E08C2F01C080E0CF91089528E1829FB5
:10387000C0011124FC01E050FA4F828908958F9213
:103880009F92AF92BF92CF92DF92EF92FF921F93DF
:10389000CF93DF934B015C01EA018F89182F1170E0
:1038A00080FD80C0CA0102960E94B0199F8991FFD5
:1038B00004C0811114E01A8B75C01A8981110AC0E5
:1038C0001E7F11F081E067C01B8A1C8A1D8A1E8A38
:1038D0001A8A68C0CB88DC88ED88FE8820E030E05A
:1038E00040E151E4C701B6010E942A2187FF0AC0C6
:1038F000A7019601C501B4010E94BE206B8B7C8B91
:103900008D8B9E8B111102C082E045C0123011F0E8
:103910001430F1F4CB88DC88ED88FE8826E636E6A4
:1039200046E65FE3C701B6010E942A2187FF02C075
:1039300084E031C0143061F426E636E646E65FE303
:10394000C701B6010E94822287FD27C088E023C0FC
:10395000183021F0103111F01032F9F480E18A8B27
:10396000CB88DC88ED88FE8820E030E040E85FE32B
:10397000C701B6010E94822287FD14C02DEC3CECE9
:103980004CEC5DE3C701B6010E94BD206B8B7C8BC4
:103990008D8B9E8B80E28A8B05C01A8A1B8A1C8ABB
:1039A0001D8A1E8ADF91CF911F91FF90EF90DF90CB
:1039B000CF90BF90AF909F908F900895CF92DF925D
:1039C000EF92FF92CF93DF936B017C01C0E0D6E0D2
:1039D000AE01C701B6010E943F1C689686E0C03C5C
:1039E000D807B1F7DF91CF91FF90EF90DF90CF90A4
:1039F0000895CF93DF9327E2829FC0011124EC0149
:103A0000C054D94F1A8A198A1C8A1B8ACE010E9477
:103A10004C191A8E198EDF91CF910895CF93DF93B1
:103A2000A82FB0E097E2899FF0011124E054F94FEC
:103A300083E090E0928B818B211103C0148A138A5A
:103A400009C0213019F481E090E002C0223011F465
:103A5000948B838B87E28A9FE0018B9FD00D11248A
:103A6000C054D94F1D8A1E8A1F8A188E1A8E198E2D
:103A70007CA36BA35EA34DA320E030E0A901FB0172
:103A800060817181828193810E94822218162CF4B8
:103A9000CE01DF91CF910C943A19DF91CF91089527
:103AA000FC01128A118A148A138A158A168A178AC7
:103AB000108E81E090E0928F818F138E148E158E80
:103AC000168E178E10A211A212A214A213A216A271
:103AD00015A20895EF920F93CF93DF93C0ECD6E039
:103AE000188A8AE4E82E06E026E031E048E051E05A
:103AF00067E071E0CE010E949A19CE010E94501D2C
:103B00001FAA07E026E031E048E051E067E071E0FD
:103B100087EE96E00E949A1987EE96E00E94501D6B
:103B200010921E0700E02FE230E041E350E060E336
:103B300070E08EE097E00E949A198EE097E0DF91A6
:103B4000CF910F91EF900C94501D8F929F92AF9256
:103B5000BF92CF92DF92EF92FF920F931F93CF937A
:103B6000DF93EC016A017B0109891A890130110593
:103B700059F4898D9A8D892B09F0D6C0CE010E9407
:103B80003A191A8F098FD0C00115110569F4898D72
:103B90009A8D892B09F0C8C0CE010E944C1981E092
:103BA00090E09A8F898FC0C00230110509F059C08A
:103BB0002D893E894F89588DC701B6010E94BE20CC
:103BC0004B015C016D8B7E8B8F8B988F0B891C89D1
:103BD00002301105C1F0A70196016F8D78A189A16E
:103BE0009AA10E94BD206F8F78A389A39AA320E099
:103BF00030E0A9010E942A2118162CF01A8B098B9B
:103C00001A8E198E91C0CB8CDC8CED8CFE8CA701AA
:103C10009601C501B4010E94822287FD85C0098DED
:103C20001A8D81E008271A8F098FA7019601C50117
:103C3000B4010E94BD206D8B7E8B8F8B988F012BE2
:103C400009F450C0CE01DF91CF911F910F91FF90E9
:103C5000EF90DF90CF90BF90AF909F908F900C949B
:103C60003A190330110509F05FC02D893E894F894B
:103C7000588DC701B6010E94BE204B015C016D8BBF
:103C80007E8B8F8B988FCBA0DCA0E98CFA8C870180
:103C9000000F111F000F111F0C0D1D1DF8012081B9
:103CA000318142815381C501B4010E9482221816DC
:103CB000DCF5FFEFEF1AFF0AFA8EE98EF80120819A
:103CC000318142815381C501B4010E94BD206D8BB9
:103CD0007E8B8F8B988F8DA19EA1E816F90688F4B4
:103CE000E0FEB0CFCE01DF91CF911F910F91FF90F9
:103CF000EF90DF90CF90BF90AF909F908F900C94FB
:103D00004C198B899C899A8B898B1A8E198E20E08D
:103D100030E0A901F60160817181828193810E9466
:103D2000822218160CF48ECFDF91CF911F910F9144
:103D3000FF90EF90DF90CF90BF90AF909F908F90CB
:103D40000895CF92DF92EF92FF926B017C01AB015D
:103D5000BC0180EC96E00E94A51DB701A60187EE8C
:103D600096E00E94A51DB701A6018EE097E0FF90A6
:103D7000EF90DF90CF900C94A51DCF93DF93989A8E
:103D8000999A9A9A579A5F9A17B884B3887F8260F3
:103D900084BB5F9AECE5F2E0C081D18180ED97E0D1
:103DA000A0E0B0E088839983AA83BB830280F3817B
:103DB000E02D80839183A283B383DF91CF91089517
:103DC0005F98E7ECF0E03197F1F700C000005F9AF0
:103DD000F5E3FA95F1F70000E82FF0E0EE0FFF1F92
:103DE000E45AFD4F0190F081E02D14821582168275
:103DF00017821086118612861386148615861686FB
:103E00001786108A118A128A138A0895E82FF0E023
:103E1000EE0FFF1FE45AFD4F0190F081E02D648505
:103E20007585868597850895E82FF0E0EE0FFF1FD2
:103E3000E45AFD4F0190F081E02D608971898289FB
:103E400093890895E82FF0E0EE0FFF1FE45AFD4F2D
:103E5000808191810C960895E82FF0E0EE0FFF1F0E
:103E6000E45AFD4F808191814096089524B3287FC4
:103E7000822F846084BB35E03A95F1F7000066B18B
:103E8000862F90E0A0E0B0E0BA2FA92F982F8827C6
:103E9000322F356034BB35E03A95F1F7000036B18A
:103EA000832BBA2FA92F982F882724BB35E03A956A
:103EB000F1F7000036B1832BBA2FA92F982F88274E
:103EC000322F316034BB35E03A95F1F7000036B15E
:103ED000226024BBBC01CD01632B08952F923F9239
:103EE0004F925F926F927F928F929F92AF92BF920A
:103EF000CF92DF92EF92FF920F931F93CF93DF93B6
:103F000000D01F92CDB7DEB71C012A013B01098307
:103F10001A832B833C83FC0184819581A681B78120
:103F200044835583668377834A015B01881A990A23
:103F3000AA0ABB0A80869186A286B38660817181B7
:103F4000828193810E94D0216B017C01C301B20167
:103F50000E94D221A70196010E942F21F1016487BE
:103F6000758786879787C501B4010E94D221298170
:103F70003A814B815C810E942F21A70196010E940A
:103F80002F21F101608B718B828B938B0F900F909F
:103F90000F900F90DF91CF911F910F91FF90EF90B5
:103FA000DF90CF90BF90AF909F908F907F906F9059
:103FB0005F904F903F902F900895CF92DF92EF92B5
:103FC000FF920F931F932091BA083091BB08409144
:103FD000BC085091BD080E94BE206B017C0160931B
:103FE000BA087093BB088093BC089093BD0829E879
:103FF00038E848E05DE30E942A2187FD15C080E093
:104000000E94361FAB01BC019701860180915C02C2
:1040100090915D020E946E1F1092BA081092BB0828
:104020001092BC081092BD081F910F91FF90EF9065
:10403000DF90CF90089585B5826085BD85B581609C
:1040400085BDEEE6F0E0808181608083089508956B
:10405000F89460915E0770915F078091600790917E
:10406000610778940895F8948091620790916307AE
:10407000A0916407B091650726B5A89B05C02F3FA6
:1040800019F00196A11DB11D7894BA2FA92F982F70
:104090008827820F911DA11DB11DBC01CD0142E0F9
:1040A000660F771F881F991F4A95D1F708951F92B1
:1040B0000F920FB60F9211242F933F938F939F93DC
:1040C000AF93BF9380915E0790915F07A0916007C7
:1040D000B091610730915D0723E0230F2D3720F465
:1040E0000196A11DB11D05C026E8230F0296A11D52
:1040F000B11D20935D0780935E0790935F07A093A7
:104100006007B09361078091620790916307A09167
:104110006407B09165070196A11DB11D80936207E8
:1041200090936307A0936407B0936507BF91AF9125
:104130009F918F913F912F910F900FBE0F901F90E5
:104140001895AA1BBB1B51E107C0AA1FBB1FA617CE
:10415000B70710F0A61BB70B881F991F5A95A9F730
:1041600080959095BC01CD010895EE0FFF1F881F2B
:104170008BBF0790F691E02D19945058BB27AA27C2
:104180000E94D5200C9448220E943A2238F00E94C6
:10419000412220F039F49F3F19F426F40C94372281
:1041A0000EF4E095E7FB0C943122E92F0E9459228E
:1041B00058F3BA17620773078407950720F079F45C
:1041C000A6F50C947B220EF4E0950B2EBA2FA02DB1
:1041D0000B01B90190010C01CA01A0011124FF27B4
:1041E000591B99F0593F50F4503E68F11A16F040AF
:1041F000A22F232F342F4427585FF3CF46953795AE
:104200002795A795F0405395C9F77EF41F16BA0B72
:10421000620B730B840BBAF09150A1F0FF0FBB1F20
:10422000661F771F881FC2F70EC0BA0F621F731F69
:10423000841F48F4879577956795B795F7959E3FC6
:1042400008F0B0CF9395880F08F09927EE0F979557
:10425000879508950E940D2208F481E008950E9438
:1042600043210C9448220E94412258F00E943A2295
:1042700040F029F45F3F29F00C94312251110C9445
:104280007C220C9437220E94592268F39923B1F3BF
:10429000552391F3951B550BBB27AA27621773076C
:1042A000840738F09F5F5F4F220F331F441FAA1F00
:1042B000A9F335D00E2E3AF0E0E832D091505040BC
:1042C000E695001CCAF72BD0FE2F29D0660F771F6A
:1042D000881FBB1F261737074807AB07B0E809F050
:1042E000BB0B802DBF01FF2793585F4F3AF09E3FD5
:1042F000510578F00C9431220C947C225F3FE4F35A
:10430000983ED4F3869577956795B795F7959F5F17
:10431000C9F7880F911D9695879597F90895E1E063
:10432000660F771F881FBB1F621773078407BA07C2
:1043300020F0621B730B840BBA0BEE1F88F7E0951D
:1043400008950E94612288F09F5798F0B92F99270D
:10435000B751B0F0E1F0660F771F881F991F1AF070
:10436000BA95C9F714C0B13091F00E947B22B1E038
:1043700008950C947B22672F782F8827B85F39F037
:10438000B93FCCF3869577956795B395D9F73EF409
:1043900090958095709561957F4F8F4F9F4F0895B1
:1043A000E89409C097FB3EF49095809570956195CF
:1043B0007F4F8F4F9F4F9923A9F0F92F96E9BB2785
:1043C0009395F695879577956795B795F111F8CF01
:1043D000FAF4BB0F11F460FF1BC06F5F7F4F8F4F6C
:1043E0009F4F16C0882311F096E911C0772321F062
:1043F0009EE8872F762F05C0662371F096E8862FFA
:1044000070E060E02AF09A95660F771F881FDAF750
:10441000880F9695879597F90895990F0008550F7D
:10442000AA0BE0E8FEEF16161706E807F907C0F03A
:1044300012161306E407F50798F0621B730B840B42
:10444000950B39F40A2661F0232B242B252B21F41C
:1044500008950A2609F4A140A6958FEF811D811DBC
:10446000089597F99F6780E870E060E008959FEFF6
:1044700080EC089500240A941616170618060906FB
:10448000089500240A9412161306140605060895CA
:10449000092E0394000C11F4882352F0BB0F40F452
:1044A000BF2B11F460FF04C06F5F7F4F8F4F9F4F92
:1044B000089557FD9058440F551F59F05F3F71F014
:1044C0004795880F97FB991F61F09F3F79F087957B
:1044D0000895121613061406551FF2CF4695F1DF04
:1044E00008C0161617061806991FF1CF8695710594
:1044F000610508940895E894BB2766277727CB01C8
:1045000097F908950E940D2208F48FEF08950E94F4
:104510009A220C9448220E943A2238F00E944122AA
:1045200020F0952311F00C9431220C9437221124A1
:104530000C947C220E94592270F3959FC1F3950F31
:1045400050E0551F629FF001729FBB27F00DB11D17
:10455000639FAA27F00DB11DAA1F649F6627B00DA7
:10456000A11D661F829F2227B00DA11D621F739F90
:10457000B00DA11D621F839FA00D611D221F749F9E
:104580003327A00D611D231F849F600D211D822FE5
:10459000762F6A2F11249F5750409AF0F1F088230C
:1045A0004AF0EE0FFF1FBB1F661F771F881F915039
:1045B0005040A9F79E3F510580F00C9431220C9495
:1045C0007C225F3FE4F3983ED4F386957795679518
:1045D000B795F795E7959F5FC1F7FE2B880F911D63
:1045E0009695879597F908959F930E94FE220F90C4
:1045F00007FCEE5F0C9427230C9437220E94612263
:10460000D8F3E894E0E0BB279F57F0F02AED3FE0B5
:1046100049EC06C0EE0FBB0F661F771F881F28F0FE
:10462000B23A62077307840728F0B25A620B730B21
:10463000840BE3959A9572F7803830F49A95BB0F06
:10464000661F771F881FD2F790480C943D23EF9385
:10465000E0FF07C0A2EA2AED3FE049EC5FEB0E94D1
:10466000D5200E9448220F90039401FC9058E4E268
:10467000F1E00C9449239F3F31F0915020F487954D
:1046800077956795B795880F911D9695879597F9BA
:1046900008959F938F937F936F93FF93EF939B0165
:1046A000AC010E948722EF91FF910E945D232F9120
:1046B0003F914F915F910C948722DF93CF931F938B
:1046C0000F93FF92EF92DF927B018C01689406C0FA
:1046D000DA2EEF010E949A22FE01E894A59125911D
:1046E000359145915591A6F3EF010E94D520FE0129
:1046F0009701A801DA9469F7DF90EF90FF900F918E
:104700001F91CF91DF910895283008F027E03327DB
:10471000DA01990F311D87FD9160009661057105E1
:1047200039F432602E5F3D9330E32A95E1F7089526
:104730009F3F30F080387105610509F03C5F3C5FB8
:104740003D93913008F08068911DDF93CF931F93C4
:104750000F93FF92EF92192F987F9695E92F9695D8
:104760009695E90FFF27E45EFD4F99273327EE2446
:10477000FF24A701E70105900894079428F4360F59
:10478000E71EF81E491F511D660F771F881F991FCE
:104790000694A1F70590079428F4E70EF81E491F28
:1047A000561FC11D770F881F991F661F0694A1F71A
:1047B0000590079428F4F80E491F561FC71FD11DF6
:1047C000880F991F661F771F0694A1F7059007941D
:1047D00020F4490F561FC71FD81F990F661F771F58
:1047E000881F0694A9F784911095177041F0D6950B
:1047F000C79557954795F794E7941A95C1F7E2EC5A
:10480000F1E0689415901591359165919591059019
:104810007FE27395E118F10A430B560BC90BD009DF
:10482000C0F7E10CF11E431F561FC91FD01D7EF4B7
:10483000703311F48A95E6CFE894015030F0080FF8
:104840000AF40027021708F4202F2395022F7A3349
:1048500028F079E37D932A95E9F710C07D932A9596
:1048600089F6069497956795379517951794E118EB
:10487000F10A430B560BC90BD00998F023957E9192
:1048800073957A3308F070E37C932013B8F77E9128
:1048900070617D9330F0839571E37D9370E32A9589
:1048A000E1F71124EF90FF900F911F91CF91DF91CD
:1048B000992787FD90950895FC01059061507040FF
:1048C0000110D8F7809590958E0F9F1F0895FC01D9
:1048D0006150704001900110D8F7809590958E0F2F
:1048E0009F1F08950F931F93CF93DF93182F092FC6
:1048F000EB018B8181FD03C08FEF9FEF1EC082FF14
:104900000FC02E813F818C819D812817390774F457
:10491000E881F981CF01019699838883108306C0CD
:10492000E885F985812F1995892B31F78E819F8133
:1049300001969F838E83812F902FDF91CF911F91BE
:104940000F9108950F931F93CF93DF93CDB7DEB7E9
:104950002E970FB6F894DEBF0FBECDBF0E891F890C
:10496000888D998D26E02C831A83098397FF02C0D6
:1049700080E090E801979E838D83AE01445E5F4F97
:104980006A8D7B8DCE0101960E9481014D815E81F1
:1049900057FD0AC02F813885421753070CF49A013E
:1049A000F801E20FF31F10822E960FB6F894DEBFC7
:1049B0000FBECDBFDF91CF911F910F9108950F933F
:1049C0001F93CF93DF93CDB7DEB72E970FB6F89432
:1049D000DEBF0FBECDBF0E891F8986E08C831A8390
:1049E00009838FEF9FE79E838D83AE01465E5F4F05
:1049F000688D798DCE0101960E948101EF81F88545
:104A0000E00FF11F10822E960FB6F894DEBF0FBE96
:104A1000CDBFDF91CF911F910F9108950F931F93F9
:104A2000CF93DF93CDB7DEB72E970FB6F894DEBFE6
:104A30000FBECDBF8C01FA0186E08C831A830983F7
:104A400077FF02C060E070E8CB0101979E838D8301
:104A5000A901BF01CE0101960E9481014D815E81B5
:104A600057FD0AC02F813885421753070CF49A016D
:104A7000F801E20FF31F10822E960FB6F894DEBFF6
:104A80000FBECDBFDF91CF911F910F910895FA0115
:104A9000AA27283051F1203181F1E8946F936E7F7D
:104AA0006E5F7F4F8F4F9F4FAF4FB1E03ED0B4E06E
:104AB0003CD0670F781F891F9A1FA11D680F791FAF
:104AC0008A1F911DA11D6A0F711D811D911DA11DC0
:104AD00020D009F468943F912AE0269F11243019D0
:104AE000305D3193DEF6CF010895462F4770405D6B
:104AF0004193B3E00FD0C9F7F6CF462F4F70405D1A
:104B00004A3318F0495D31FD4052419302D0A9F774
:104B1000EACFB4E0A6959795879577956795BA956E
:104B2000C9F700976105710508959B01AC010A2E34
:104B300006945795479537952795BA95C9F7620F0B
:0E4B4000731F841F951FA01D0895F894FFCFCA
:104B4E0000000000CDCC4C3ECDCC4C3D0000403F93
:104B5E00CDCC4C3DCDCCCC3DCDCC4C3DCDCC4C3F3D
:104B6E00CDCC4C3DCDCCCC3DCDCC4C3DCDCC4C3F2D
:104B7E00CDCC4C3D9A99F93FCDCC4C3D9A99F93F0D
:104B8E00DB05FD05A6060C07EB07D60A68058E05A4
:104B9E002305320543055B0562092D0A49073507D2
:104BAE005B5245464552454E434941525D00434F87
:104BBE004E54524F4C4F204C4956524500434F4E87
:104BCE00464947205055425300444546494E4943B5
:104BDE004F4553005B4D454E55205052494E43496B
:104BEE0050414C5D00202020204155544F3A204F1B
:104BFE004B00202020202020204155544F0053618F
:104C0E00696E646F2E2E2E00536169723F003E2036
:104C1E00636F6E74726F6C6F206C69767265003E96
:104C2E00207265666572656E63696172003E20640E
:104C3E006566696E69636F6573003E2073616972A4
:104C4E00003E20696E6963696172003E20636F6E7B
:104C5E006669672E20707562732E005B4C5D204E68
:104C6E006F726D616C20202020202563005B4C5DEF
:104C7E00205375706572696F722020202563005B6A
:104C8E004C5D20496E666572696F72202020256327
:104C9E00005B4C5D204C697672650025362E3266BF
:104CAE00722025352E3266727073005B435D20478D
:104CBE0072617661723F0053696D004E616F005BE9
:104CCE00435D204E6F7661206366673F202563004B
:104CDE00466F6C6861733A202564207673202564D4
:104CEE00005B435D20466F6C6861202532643F0097
:104CFE00503A202D2D2E2D2D2C20257300503A208C
:104D0E0025352E32662C202573005B435D20466FC1
:104D1E006C686120253264202825632900253275B0
:104D2E003A2530327568002532753A253032756D68
:104D3E00002532752E25317573002532752E2530DE
:104D4E00327573007B527D205265666572656E63A7
:104D5E00696172007B527D20496E6963696F007BC9
:104D6E00527D2046696D007B527D204573746963C8
:104D7E0061720053656D20666F6C686173206465A7
:104D8E00667300506F727461206162657274612E79
:104D9E002E2E00496E696369617220656D20257340
:104DAE00004120697220702F20666F6C686120258B
:104DBE0064005B2532645D2050726F78202573008D
:064DCE00252D31367300B3
:00000001FF
