:100000000C945E010C947F010C947F010C947F0191
:100010000C947F010C947F010C947F010C947F0160
:100020000C947F010C947F010C947F010C947F0150
:100030000C947F010C947F010C947F010C947F0140
:100040000C947F010C947F010C947F010C947F0130
:100050000C947F010C947F010C947F010C94231F5E
:100060000C947F010C947F010C947F010C947F0110
:100070000C947F010C947F010C947F010C947F0100
:100080000C947F010C947F010C947F010C947F01F0
:100090000C947F010C947F010C947F010C947F01E0
:1000A0000C947F010C947F010C947F010C947F01D0
:1000B0000C947F010C947F010C947F010C947F01C0
:1000C0000C947F010C947F010C947F010C947F01B0
:1000D0000C947F010C947F010C947F010C947F01A0
:1000E0000C947F0198199819981998194319431974
:1000F00043195819581958196D196D196D19821924
:1001000082198219151A151A151A151AA919B21970
:10011000BB19C419CD19D619DF19E819F119FA1943
:10012000031A0C1A05A84CCDB2D44EB93836A90220
:100130000C50B9918688083CA6AAAA2ABE000000E5
:10014000803F0C9441050C940C1A0C94B2190C9439
:10015000D9050C9482190C947C0A0C94151A0C94F1
:10016000E8190C94D6190C94FB050C940A070C940E
:10017000F1190C94A4060C9423050C9458190C94B2
:1001800066050C94FA190C946D190C9459050C948D
:1001900043190C9498190C94031A0C94CD190C94CF
:1001A0009E070C94A9190C9432050C948C050C94A0
:1001B000C4190C94BB190C94DF196E616E00696E42
:1001C000660000407A10F35A00A0724E1809001021
:1001D000A5D4E80000E87648170000E40B540200BC
:1001E00000CA9A3B000000E1F505000080969800E7
:1001F000000040420F000000A08601000000102710
:1002000000000000E803000000006400000000009F
:100210000A00000000000100000000002C76D888D1
:10022000DC674F0823DFC1DFAE59E1B1B796E5E3E4
:10023000E453C63AE651997696E8E6C28426EB89FD
:100240008C9B62ED407C6FFCEFBC9C9F40F2BAA59A
:100250006FA5F490055A2AF75C936B6CF9676DC132
:100260001BFCE0E40D47FEF520E6B500D0ED902E36
:100270000300943577050080841E080000204E0A94
:10028000000000C80C333333330F986E12831141D2
:10029000EF8D2114893BE65516CFFEE6DB18D1849D
:1002A0004B381BF77C1D901DA4BBE42420328472C4
:1002B0005E228100C9F124ECA1E53D2711241FBE77
:1002C000CFEFD1E2DEBFCDBF00E00CBF14E0A0E075
:1002D000B2E0E6EEF8E400E00BBF02C007900D923A
:1002E000A437B107D9F72AE0A4E7B4E001C01D9212
:1002F000A13EB207E1F70E941A050C9471240C94F8
:1003000000002F923F924F925F926F927F928F9256
:100310009F92AF92BF92CF92DF92EF92FF920F9394
:100320001F93CF93DF93CDB7DEB761970FB6F894E5
:10033000DEBF0FBECDBF7C013B016A01FC0117820D
:100340001682838181FF37C39E012F5F3F4F490192
:10035000F7019381F30193FD859193FF81913F0113
:10036000882309F424C3853239F493FD859193FFE2
:1003700081913F01853239F4B70190E00E943E231C
:1003800056016501E5CF10E0312C20E02032A0F4C9
:100390008B3269F030F4803259F0833269F4206195
:1003A0002CC08D3239F0803339F4216026C02260B0
:1003B000246023C0286021C027FD27C030ED380FFE
:1003C0003A3078F426FF06C0FAE01F9F300D112462
:1003D000132F13C08AE0389E300D1124332E206273
:1003E0000CC08E3221F426FDE2C2206406C08C3699
:1003F00011F4206802C0883641F4F30193FD859121
:1004000093FF81913F018111C1CF9BEB980F9330F6
:1004100018F42061805E06C09BE9980F933008F0C5
:1004200066C12F7E26FF16E02F73522E853619F4F3
:100430002064522E08C0863621F4922F9068592EDF
:1004400002C01111115057FE07C01C3350F4222472
:100450002394210E27E00BC0183038F027E017E076
:1004600005C027E09CE3292E02C0212F212C560134
:10047000E4E0AE0EB11CF60160817181828193814E
:10048000022DA4010E9450226C0129812C8720FF9B
:1004900002C023FF06C051FC06C052FE06C000E2A7
:1004A00005C00DE203C00BE201C000E08C858C703A
:1004B00019F001115DC29EC257FE10C02C0C2C8594
:1004C00024FF04C08A81813309F42A94121474F53C
:1004D00038E0321578F588E0282E2CC056FC2AC06A
:1004E000812F90E08C159D059CF08CEFC8168FEF46
:1004F000D80674F0952D9068592E0AC0E2E0F0E01D
:10050000EC0FFD1FE10FF11D8081803319F41150B4
:100510001111F4CF57FE0EC022242394210E812FF7
:1005200090E0C816D9062CF41C1904C02224239488
:1005300001C010E057FE06C01C141D0434F4C601AF
:10054000019605C085E090E002C081E090E00111D5
:100550000196112331F0212F30E02F5F3F4F820FA2
:10056000931F232D30E08217930714F4381A01C02B
:10057000312C852D897049F4332039F0B70180E2A0
:1005800090E00E943E233A94F7CF002329F0B70170
:10059000802F90E00E943E2353FC09C0332039F0A5
:1005A000B70180E390E00E943E233A94F7CF57FED4
:1005B0004DC02601D7FE02C0412C512CC601019628
:1005C000841995099401280F391F3E872D879601BC
:1005D00022193109388B2F87012F10E011950195D1
:1005E00011093FEF4316530629F4B7018EE290E05C
:1005F0000E943E23C414D5044CF02F85388924155D
:10060000350524F4ED85FE85808101C080E3F1E0AD
:100610004F1A51082D853E852F5F3F4F3E872D870E
:10062000401651062CF0B70190E00E943E23D9CF2E
:10063000C414D50441F49A81963320F4953319F407
:100640003C8534FF81E3B70190E04EC08A8181335D
:1006500019F02C852F7E2C87B70190E00E943E2355
:10066000111105C054FC18C085E690E017C0B70111
:100670008EE290E00E943E231E5F82E001E0080FC0
:10068000F401E80FF11D8081B70190E00E943E2344
:10069000802F0113F3CFE6CF85E490E0B7010E94ED
:1006A0003E23D7FC06C0C114D10441F43C8534FF7D
:1006B00005C0D194C194D1088DE201C08BE2B7018D
:1006C00090E00E943E2380E3EAE0CE16D1042CF0B5
:1006D0008F5F9AE0C91AD108F7CFB70190E00E9466
:1006E0003E23B701C601C0960E943E2356C1833601
:1006F00031F0833779F0833509F058C021C05601B5
:10070000F2E0AF0EB11CF6018081898301E010E0B8
:10071000640114C05601F2E0AF0EB11CF601C080B6
:10072000D18026FF03C0612F70E002C06FEF7FEF22
:10073000C601298B0E9433238C0129892F7715C08C
:100740005601F2E0AF0EB11CF601C080D18026FF49
:1007500003C0612F70E002C06FEF7FEFC601298BED
:100760000E9428238C0129892068522E23FD1AC05B
:10077000832D90E008171907A8F4B70180E290E0F4
:100780000E943E233A94F4CFF60157FC859157FE20
:1007900081916F01B70190E00E943E2331103A949D
:1007A000015011090115110579F7F7C0843611F0D0
:1007B000893659F5560127FF09C0F4E0AF0EB11C88
:1007C000F60160817181828193810AC0F2E0AF0EEF
:1007D000B11CF60160817181072E000C880B990B0A
:1007E0002F76522E97FF09C0909580957095619550
:1007F0007F4F8F4F9F4F2068522E2AE030E0A40198
:100800000E941324C82EC8183FC0022F853721F438
:100810000F7E2AE030E01DC0097F8F3691F018F47A
:10082000883559F0C4C0803719F0883711F0BFC03F
:10083000006104FF09C0046007C024FF08C006600F
:1008400006C028E030E005C020E130E002C020E131
:1008500032E0560107FF09C0F4E0AF0EB11CF6010B
:10086000608171818281938108C0F2E0AF0EB11C7A
:10087000F6016081718180E090E0A4010E94132460
:10088000C82EC8180F77502E56FE0BC0052D0E7FB0
:10089000C11650F454FE0AC052FC08C0052D0E7E4D
:1008A00005C0DC2C052D03C0DC2C01C0D12E04FFBB
:1008B0000DC0FE01EC0DF11D8081803311F4097E25
:1008C00009C002FF06C0D394D39404C0802F867859
:1008D00009F0D39403FD11C000FF06C0D31488F4BF
:1008E0003C0C132D1D190EC0D31460F4B70180E227
:1008F00090E00E943E23D394F7CFD31418F43D1810
:1009000002C01C2D312C04FF10C0B70180E390E021
:100910000E943E2302FF17C001FD03C088E790E05C
:1009200002C088E590E0B7010CC0802F867859F0AE
:1009300001FF02C08BE201C080E207FD8DE2B7013A
:1009400090E00E943E23C11638F4B70180E390E0A6
:100950000E943E231150F7CFCA94F401EC0DF11D13
:100960008081B70190E00E943E23C110F5CF15C0F1
:10097000F4E0F31560F584E0381A53FE1FC001114E
:1009800027C03C8533FF2AC00AEB11E0852D80711A
:10099000582EF8018491811124C0332009F4F1CC40
:1009A000B70180E290E00E943E233A94F6CFF7012F
:1009B0008681978126C08FEF9FEF23C0B70180E229
:1009C00090E00E943E233A943110F8CFD8CF312CDA
:1009D000B701802F90E00E943E23D3CF0EEB11E0B1
:1009E000D5CF51108052B70190E00E943E230F5F97
:1009F0001F4FCFCF23E0231510F483E0BDCF312C60
:100A0000C0CF61960FB6F894DEBF0FBECDBFDF91A9
:100A1000CF911F910F91FF90EF90DF90CF90BF90FB
:100A2000AF909F908F907F906F905F904F903F908E
:100A30002F9008950E9477170E94860A0E948317BC
:100A40000E948A0AFBCF0E94D71080E692E09F9313
:100A50008F931F920E94BD10109256070F900F9017
:100A60000F9008950E94D7108EE692E09F938F9387
:100A70001F920E94BD10109255070F900F900F907B
:100A800008950E94D7108DE792E09F938F931F9255
:100A90000E94BD10109260078FEF8093570710924D
:100AA0005F0710925907109258070F900F900F9000
:100AB00008950E94D71089E892E09F938F931F9228
:100AC0000E94BD100F900F900F9008950E94D710B4
:100AD00083EB92E09F938F931F920E94BD1022E0C0
:100AE00044E050E060E372E080E00E94DA1B81E0C5
:100AF0000E94C51B20E044E050E060E272E082E02A
:100B00000E94DA1B62E080E00E941F0D10925407E1
:100B10000F900F900F9008950E94D71084E992E0F3
:100B20009F938F931F920E94BD1022E044E050E0FB
:100B300060E172E080E00E94DA1B22E044E050E0D5
:100B400060E072E081E00E94DA1B10925A070F9079
:100B50000F900F9064E080E00C941F0DE0915D0712
:100B6000F0915E07EE0FFF1FE05CFD4F0190F081FA
:100B7000E02D199420915D0730915E0730935C075A
:100B800020935B0790935E0780935D07880F991F02
:100B9000FC01E45BFD4F0190F081E02D19948FEF93
:100BA0009FEF90935C0780935B0780E090E00C944C
:100BB000BA0580E00E94E41A882349F081E00E948F
:100BC000E41A882321F081E090E00C94BA0568E0F3
:100BD00080E00E94E00B882319F085EA92E002C0D1
:100BE00082EB92E09F938F931F920E94BD100F9013
:100BF0000F900F90089580915A0787FF24C080E0DE
:100C00000E94D71A882319F08EEB92E002C088EC7C
:100C100092E09F938F9381E08F930E94BD100F907D
:100C20000F900F9081E00E94AA1A882319F0109269
:100C30005A07089580E00E94E41A882309F483C0CB
:100C400080E090E06EC081E00E94AA1A882321F023
:100C50008FEF80935A07089585E00E94C41A882375
:100C600029F080915A078F5F80935A0784E00E9491
:100C7000C41A882329F080915A07815080935A071B
:100C800080915A0787FF03C083E080935A078091C1
:100C90005A07082E000C990B97FF03C09195819578
:100CA0009109837080935A07823049F18330D9F1DA
:100CB000813099F08EEC92E09F938F9381E08F9337
:100CC0000E94BD1080E00E94AA1A0F900F900F9012
:100CD0008823C9F183E090E024C02FED32E03F93F8
:100CE0002F938F930E94BD1080E00E94AA1A0F904C
:100CF0000F900F90882339F182E090E012C08DEEC2
:100D000092E09F938F9381E08F930E94BD1080E0CB
:100D10000E94AA1A0F900F900F908823A1F085E0EF
:100D200090E00C94BA058AEF92E09F938F9381E054
:100D30008F930E94BD1080E00E94AA1A0F900F901E
:100D40000F90811185CF08950E949C0A60E20E9455
:100D5000E00B882321F081E080935607089581E01D
:100D60000E94AA1A882319F081E090E050C085E023
:100D70000E94C41A882329F0809156078F5F8093C0
:100D8000560784E00E94C41A882329F080915607F0
:100D90008150809356078091560787FF03C081E0FA
:100DA0008093560780915607082E000C990B97FFE9
:100DB00003C0919581959109817080935607813088
:100DC000A9F081E093E09F938F9381E08F930E943D
:100DD000BD1080E00E94AA1A0F900F900F908823F8
:100DE000C1F00E949C0A60E20C941F0D2BE033E0DE
:100DF0003F932F938F930E94BD1080E00E94AA1A08
:100E00000F900F900F90882321F084E090E00C94D5
:100E1000BA0508950F931F93CF93DF9381E00E944B
:100E2000AA1A882341F081E090E0DF91CF911F91D1
:100E30000F910C94BA0585E00E94C41A882329F00A
:100E4000809155078F5F8093550784E00E94C41AF4
:100E5000882329F080915507815080935507809110
:100E6000550787FF03C083E080935507809155079E
:100E7000082E000C990B97FF03C09195819591095D
:100E800083708093550781110EC08BE193E09F938F
:100E90008F931F920E94BD100E949C0A43E062E063
:100EA0000E94690C20C0813019F486E293E004C0EE
:100EB000823071F483E393E09F938F931F920E949B
:100EC000BD100E949C0A41E060E00E94940C0BC09F
:100ED00080E493E09F938F931F920E94BD100E9425
:100EE0009C0A0E94950C0F900F900F900E949C0AF4
:100EF0000E94E01DEB01182F092F0E949C0A0E94FE
:100F0000D21D0F931F93DF93CF939F938F937F9364
:100F10006F938AE493E09F938F9381E08F930E9475
:100F2000BD108DB79EB70B960FB6F8949EBF0FBE3F
:100F30008DBFDF91CF911F910F910895CF92DF92D6
:100F4000EF92FF920F931F93CF93DF9300D01F92E6
:100F5000CDB7DEB78091600787FF51C08AE593E087
:100F60009F938F931F920E94BD1082E00E94AA1A45
:100F70000F900F900F90882321F081E08093590704
:100F800006C083E00E94AA1A81111092590780912D
:100F90005907882319F086E693E002C08AE693E0B9
:100FA0009F938F9381E08F930E94BD100F900F90BD
:100FB0000F9081E00E94AA1A882319F081E08093A3
:100FC000600780E00E94AA1A882309F488C28091F1
:100FD0005907882321F00E949C0A0E94480C82E055
:100FE00090E00F900F900F900F90DF91CF911F9195
:100FF0000F91FF90EF90DF90CF900C94BA05811184
:1010000062C081E00E94AA1A8111E9CF0E949C0A65
:101010000E94EA0B882309F446C080915807811189
:1010200002C08EE401C083E51F928F938EE693E0A9
:101030009F938F931F920E94BD100E949C0A0E9452
:10104000FA0B0E94040C182F0E949C0A0E94F30BBA
:101050000E94040C1F921F931F928F938FE793E0BF
:101060009F938F9311E01F930E94BD1082E00E9416
:10107000AA1A0FB6F894DEBF0FBECDBF882319F0B1
:101080001093580706C083E00E94AA1A811110929B
:10109000580780E00E94AA1A882309F420C2809190
:1010A000580781110CC00E949C0A0E94F30B8C010E
:1010B0000E949C0A0E94FA0BB8010E94360C81E043
:1010C000809360070CC2813009F009C20E949C0A1B
:1010D0000E94F30B6C0180915707811134C10E946B
:1010E000AA1A882321F08FEF8093570705C081E06B
:1010F0000E94AA1A8111F7CF80915F07F60139E0AB
:101100008302E00DF11D112481E0808385E00E94BF
:10111000C41A8823C1F080915F07860199E0890293
:10112000000D111D112420E030E040E85FE3F801DC
:1011300065817681878190850E948A1FF801658389
:1011400076838783908784E00E94C41A10915F079A
:101150008823B1F07601F9E01F02E00CF11C1124A4
:1011600020E030E040E85FE3F70165817681878128
:1011700090850E94891FF701658376838783908716
:10118000960189E01802200D311D1124890120E00B
:1011900030E0A901F80165817681878190850E9400
:1011A000F61F87FF05C0F801158216821782108688
:1011B00020E030E046E153E4F801658176818781E3
:1011C00090850E944E2118160CF044C085E00E94C4
:1011D000C41A8823E9F085E00E94E41A8823C1F04C
:1011E00080915F078601F9E08F02000D111D112427
:1011F00020E030E048EE51E4F80165817681878196
:1012000090850E948A1FF801658376838783908783
:1012100084E00E94C41A8823E9F084E00E94E41A62
:101220008823C1F080915F078601F9E08F02000DED
:10123000111D112420E030E048EE51E4F8016581F1
:101240007681878190850E94891FF8016583768366
:10125000878390870E949C0A43E062E00E94690CA9
:1012600080915F07082E000C990B01969F938F9336
:1012700080E993E09F938F931F920E94BD1080910D
:101280005F07F60129E08202E00DF11D112465815E
:1012900076818781908540E00E949E0A9F938F937C
:1012A0008FE993E09F938F9311E01F930E94BD10ED
:1012B0000E949C0A0E9449130FB6F894DEBF0FBE2D
:1012C000CDBF882309F40BC180915F077601F9E057
:1012D0008F02E00CF11C11240E949C0A0E94DC1277
:1012E000F701618372838383948380915F07F601A2
:1012F00029E08202E00DF11D11246581768187814C
:10130000908540E00E949E0A20915F079F938F93F3
:10131000F60139E02302E00DF11D112484818F9341
:1013200083818F9382818F9381818F938BEA93E066
:101330009F938F931F930E94BD100FB6F894DEBF4A
:101340000FBECDBFCCC085E00E94C41A882329F00F
:1013500080915F078F5F80935F0784E00E94C41ACB
:10136000882329F080915F07815080935F078091E7
:101370005F0787FF03C08FE080935F0780915F075F
:10138000082E000C990B97FF03C091958195910948
:101390008F7080935F0785E00E94C41A882301F153
:1013A0000E949C0A0E9449138823F9F080915F07EC
:1013B000F60199E08902E00DF11D1124418152816D
:1013C0006381748149835A836B837C830E949C0A66
:1013D00020E049815A816B817C810E94CD1205C039
:1013E00084E00E94C41A8111DBCF80915F07F6016F
:1013F00029E08202E00DF11D11249081911102C0BB
:101400009EE401C093E51F929F93082E000C990B58
:1014100001969F938F9388EB93E09F938F931F92F6
:101420000E94BD1080915F07F60139E08302E00D54
:10143000F11D1124658176818781908540E00E94AD
:101440009E0A20915F079F938F93F60189E02802FF
:10145000E00DF11D112484818F9383818F9382810C
:101460008F9381818F938BEA93E09F938F9311E009
:101470001F930E94BD1082E00E94AA1A0FB6F89432
:10148000DEBF0FBECDBF882351F080915F07F6010C
:1014900029E08202E00DF11D112410830EC083E0CB
:1014A0000E94AA1A882349F080915F07F60139E06B
:1014B0008302E00DF11D1124108280E00E94AA1A1F
:1014C000882319F0109257070AC081E00E94AA1AD7
:1014D000882329F08FEF80936007109259070F90AF
:1014E0000F900F900F90DF91CF911F910F91FF9070
:1014F000EF90DF90CF90089581E00E94AA1A882390
:1015000021F081E090E00C94BA0508950E94950BBB
:101510000C94CF05CF92DF92EF92FF920E940618B3
:101520006B017C010E94B910C701B601FF90EF90DA
:10153000DF90CF900C94AE0580E008958F929F923B
:10154000AF92BF92CF92DF92EF92FF92CF936B0157
:101550007C01C42F20E030E041E655E40E944E219A
:1015600087FD41C020E030E041E655E4C701B60107
:101570000E94FB1F0E946D204B015C0180E19EE0F8
:10158000889DB001899D700D989D700D112480E09B
:1015900090E00E949C209B01AC01C701B6010E9413
:1015A000891F20E030E040E752E40E94FB1F0E94C8
:1015B0006D207F936F939F928F928BEC93E09F931C
:1015C0008F931F928AE08F9381E697E09F938F938A
:1015D0000E946E238DB79EB70A960FB6F8949EBFF1
:1015E0000FBE8DBF96C020E030E048EC52E4C7014A
:1015F000B6010E944E2187FF02C0C11138C020E011
:1016000030E040E752E4C701B6010E94FB1F0E9490
:101610006D204B015C018CE3889DB001899D700DAC
:10162000112480E090E00E949C209B01AC01C70146
:10163000B6010E94891F0E946D207F936F939F9235
:101640008F9285ED93E09F938F931F928AE08F9303
:1016500081E697E09F938F930E946E238DB79EB78C
:101660000A960FB6F8949EBF0FBE8DBF52C0C70139
:10167000B6010E946D204B015C0180E090E00E9469
:101680009C209B01AC01C701B6010E94891F20E08C
:1016900030E048EC52E40E9453210E946D20CB01BF
:1016A000C130F1F46AE070E00E946D1F7F936F9388
:1016B0009F928F928FED93E09F938F931F928AE07A
:1016C0008F9381E697E09F938F930E946E238DB74F
:1016D0009EB70A960FB6F8949EBF0FBE8DBF19C075
:1016E0007F936F939F928F9288EE93E09F938F9357
:1016F0001F928AE08F9381E697E09F938F930E94D9
:101700006E238DB79EB70A960FB6F8949EBF0FBE94
:101710008DBF81E697E0CF91FF90EF90DF90CF9063
:10172000BF90AF909F908F900895E4E7F4E081E040
:1017300090E091838083128286E0838387E08483B4
:1017400086E897E0968385838BE697E00E940F18E2
:10175000EDE6F7E021E0218F88E491EEAAE3BFE314
:10176000828F938FA48FB58F80E090E0A0EAB0E4E1
:10177000868F978FA0A3B1A324AB4CEE51E56CE00C
:1017800071E445AB56AB67AB70AF81AF92AFA3AF1F
:10179000B4AF2093D70742E558EB66E871E4409375
:1017A000D8075093D9076093DA077093DB078093CB
:1017B000DC079093DD07A093DE07B093DF07089561
:1017C00027EB829FC0011124FC01EC58FB4F808164
:1017D0008623089527EB829FC0011124FC01EC5859
:1017E000FB4F8289089527EB829FC0011124855603
:1017F0009B4F089527EB829FC0011124FC01EC58F8
:10180000FB4F858196810895FC019C0120573F4F35
:1018100080E0908191118F5F3996E217F307C9F745
:101820000895EF92FF921F93CF93DF93EC017C0119
:1018300080E9E80EF11C10E08881882361F020E047
:1018400030E040E85FE36D817E818F8198850E9462
:101850004E2187FF1F5F2996CE15DF0569F7812F7F
:10186000DF91CF911F91FF90EF9008959B01BC01F4
:1018700060577F4F49E0FC01D90101900D924A95D4
:10188000E1F70996275F3F4F8617970799F7089565
:10189000CF93DF9397EB899FA001112420E030E0E4
:1018A000EA01C758DB4FA881B981A20FB31FF90124
:1018B000E40FF51F89E0E556FB4F01900D928A95E4
:1018C000E1F7275F3F4F2039310569F7DF91CF916D
:1018D0000895CF93DF93D62FC42F862F0E94AA1A84
:1018E000882321F00E949C0A60E008C08C2F0E948F
:1018F000AA1A882329F00E949C0A61E00E9487129C
:101900008D2F0E94B71A882339F00E949C0A63E049
:10191000DF91CF910C9487128C2F0E94B71A8111FE
:10192000F4CFDF91CF910895089562E00C9487126F
:10193000CF93C82F0E942C1387EBC89FF00111246E
:10194000EC58FB4F808180FF03C081E090E009C02C
:1019500081FF03C082E090E004C082FF04C084E005
:1019600090E091838083CF910895CF92DF92EF92A0
:10197000FF921F93CF93DF936C01162F7A01C62F2E
:10198000F701D081C031B8F4CD0FF60189E0C89FCE
:10199000E00DF11D11248081882391F320E030E0D7
:1019A00040E85FE365817681878190850E944E21C2
:1019B00087FF21C0E5CF8D2F81958083C12FC03156
:1019C000B8F4CD1BF60189E0C89FE00DF11D11248C
:1019D00080818823A1F320E030E040E85FE3658167
:1019E0007681878190850E944E2187FF04C0E7CFD2
:1019F000F701D083C12F8C2FDF91CF911F91FF90E2
:101A0000EF90DF90CF900895FC01118A80E090E084
:101A1000A0E8BFEB838B948BA58BB68B878B908FC5
:101A2000A18FB28F81E0828B22EF33E03F932F931F
:101A30008F930E94BD100F900F900F900895FF920A
:101A40000F931F93CF93DF931F92CDB7DEB7F82E7E
:101A500065FF15C087EBF89E800111240C581B4FC1
:101A6000F801808185FD36C0C80169830E94040D9C
:101A7000F80180819181806291838083698160FF18
:101A80000AC087EBF89EF0011124EC58FB4F81E06F
:101A900090E09183808361FF0AC087EBF89EF0019C
:101AA0001124EC58FB4F82E090E09183808362FF29
:101AB00011C08F2D0E94980C63E08F2D0E94871219
:101AC00087EBF89EF0011124EC58FB4F84E090E086
:101AD000918380830F90DF91CF911F910F91FF90A1
:101AE00008954F925F926F927F928F929F92AF92E2
:101AF000BF92DF92EF92FF920F931F93CF93DF93EA
:101B0000EC012A013B018F88988CA98CBA8C20E0CB
:101B100030E0A901C501B4010E944E2187FD0AC031
:101B2000A3019201C501B4010E94891F6F8B788FB8
:101B3000898F9A8F1989111124C08A810E94AC1D46
:101B40008A810E94DC126B8B7C8B8D8B9E8B20E0BC
:101B500030E040E05FE361E08A810E94EC118A811D
:101B60000E942C1380E090E0A0E0BFE38F8B988F61
:101B7000A98FBA8F81E0898B22E034E03F932F93C5
:101B800074C0113031F58A810E94EF129F772DECDD
:101B90003CEC4CEC5DE30E94F61F87FFE5C020E0C3
:101BA00030E0A9016F89788D898D9A8D0E94F61F8A
:101BB00087FFDAC067E08A810E94871280E090E0A8
:101BC000A0E8BEE38F8B988FA98FBA8F82E0898BB4
:101BD00080C1123009F04DC020E030E0A9016F89CA
:101BE000788D898D9A8D0E94F61F87FFBDC08B88E6
:101BF0009C88AD88BE888A810E94DC129B01AC0162
:101C0000C501B4010E94891F20E030E040E450E4A7
:101C10000E94891F6B8B7C8B8D8B9E8B8A810E948F
:101C2000AC1D8A810E94DC1220E030E040E85EE3D7
:101C30000E948A1F6B8F7C8F8D8F9E8F2AE939E9D6
:101C400049E95FE360E08A810E94EC1180E090E066
:101C5000A0E0BFE38F8B988FA98FBA8F83E0898B29
:101C60008DE094E09F938F9381E08F930E94BD104D
:101C700078C01330C9F58A810E94DC122B893C8917
:101C80004D895E890E944E21181644F420E030E010
:101C900040E05FE360E08A810E94EC118A810E944B
:101CA000EF129F772DEC3CEC4CEC5DE30E94F61FAD
:101CB00087FF5AC020E030E0A9016F89788D898DB7
:101CC0009A8D0E94F61F87FF4FC067E08A810E94AD
:101CD000871280E090E0A0E8BEE38F8B988FA98FF9
:101CE000BA8F84E0898B40C0143009F03FC020E0F7
:101CF00030E0A9016F89788D898D9A8D0E94F61F39
:101D000087FF32C08A810E94DC1220E030E040E888
:101D10005EE30E94891F6F8F78A389A39AA32B8DFE
:101D20003C8D4D8D5E8D0E94891F6BA37CA38DA37E
:101D30009EA385E0898B85E194E09F938F9381E05A
:101D40008F930E94BD104B8D5C8D6D8D7E8D1AE939
:101D5000E12E19E9F12E09E91FE320E08A810E94B2
:101D60008D120F900F900F9011E0B3C0153009F055
:101D7000A1C08A810E9402138823B1F320E030E0E1
:101D800040EC50E46BA17CA18DA19EA10E94FB1FA1
:101D90002B013C018E01095D1F4FE12CF12CDD244C
:101DA000D394B7010F2C000C880B990B0E949E2036
:101DB0004B015C019B01AC01C301B2010E944E21A9
:101DC000F8011816ACF4D08220E030E040EC50E48A
:101DD000C501B4010E94532120E030E040E85EE3F9
:101DE0000E948A1FF801618372838383948305C0F4
:101DF0001082118212821382148215821682178237
:101E00001086FFEFEF1AFF0A075F1F4F80E1E81609
:101E1000F10439F6FA808BA09CA0ADA0BEA0E4E04E
:101E2000FE9E80011124F801E359F84FA5019401A9
:101E300061897289838994890E94891F9F7720E034
:101E400030E040E85FE30E94F61F87FD1A8A4B8D61
:101E50005C8D6D8D7E8DF801E359F84F418352837F
:101E6000638374830F8D18A129A13AA1018712877A
:101E700023873487818A928AA38AB48A8F2D0E940D
:101E800013138AEC93E09F938F9381E08F930E94CA
:101E9000BD10198A80E090E0A0E8BFEB8B8B9C8B93
:101EA000AD8BBE8B8F8B988FA98FBA8F0F900F90B1
:101EB0000F900EC08FEF898B80E090E0A0E8BFEB21
:101EC0008B8B9C8BAD8BBE8B8F8B988FA98FBA8F92
:101ED00010E0812FDF91CF911F910F91FF90EF9034
:101EE000DF90BF90AF909F908F907F906F905F90AA
:101EF0004F9008958F929F92AF92BF92CF92DF92B0
:101F0000EF92FF92CF93DF936B017C01EA0188810E
:101F1000998180FF0EC066E08A81DF91CF91FF90AA
:101F2000EF90DF90CF90BF90AF909F908F900C94E8
:101F3000871281FF03C183FD84C08D819E810E9431
:101F4000110C81110CC081E294E09F938F9381E08A
:101F50008F930E94BD100F900F900F90FFC08B8148
:101F60000E94021B882321F163E08A810E9487126C
:101F700080E090E0A0E4B0E48F839887A987BA87D7
:101F800081E394E09F938F9381E08F930E94BD1033
:101F90000F900F900F908A81DF91CF91FF90EF907B
:101FA000DF90CF90BF90AF909F908F900C94980C43
:101FB0008F809884A984BA8420E030E0A901C5010B
:101FC000B4010E944E21181694F4A7019601C50190
:101FD000B4010E94891F6F83788789879A8741E0BF
:101FE0000E949E0A9F938F9381E494E074C088813D
:101FF00085FDA8C08A810E94491381110EC060E24C
:102000008A81DF91CF91FF90EF90DF90CF90BF90CA
:10201000AF909F908F900C941F0D1B861C861D8681
:102020001E868FEF8F8781E0888B80E090E0A0E4B0
:10203000B0E48F839887A987BA878881998188605F
:102040008BC08B810E94021B882321F0888199819B
:10205000877F82C020E030E0A9016B857C858D857B
:102060009E850E94F61F181654F1AE01415F5F4F26
:1020700068898D819E810E94B50C888BED81FE81DF
:1020800099E0899FE00DF11D112485819681A7813A
:10209000B0858B879C87AD87BE87418152816381E4
:1020A000748121E08A81DF91CF91FF90EF90DF90E2
:1020B000CF90BF90AF909F908F900C94CD128A815B
:1020C0000E940213811113C0888990E001969F93AA
:1020D0008F938FE494E09F938F9381E08F930E947E
:1020E000BD100F900F900F900F900F9037C0A70169
:1020F00096016B857C858D859E850E94891F6B87E7
:102100007C878D879E8741E00E949E0A9F938F93D4
:10211000888990E001969F938F9380E694E09F9347
:102120008F9381E08F930E94BD108DB79EB7079665
:102130000FB6F8949EBF0FBE8DBF10C08472992752
:10214000849761F4B701A601CE010E94710D81113F
:1021500005C0888199818F7D99838883DF91CF9194
:10216000FF90EF90DF90CF90BF90AF909F908F90B7
:10217000089544E754E00C947A0FCF93DF93CDB7E2
:10218000DEB78E8121E4829FC00111249E01275F6A
:102190003F4F4F81588560E470E08555974F0E940E
:1021A000DA2381E08093A608DF91CF910895CF9341
:1021B000DF93CAECD3E0DF93CF931F920E94BD1050
:1021C000DF93CF9381E08F930E94BD100F900F900B
:1021D0000F900F900F900F90DF91CF91089510986E
:1021E00042B1982F92959F7054E0959F90011124D1
:1021F000942F937C292B22B9119A95E09A95F1F7A7
:102200000000119822B1237C34E0839FC001112487
:10221000822B82B9119A55E05A95F1F70000119876
:1022200085ED8A95F1F700000895089A099A81B121
:102230008C6381B91098119882B1837C82B981E056
:102240008093A608EDE2F9E0118A10821092EC0862
:102250001092AB088FE59AEE0197F1F700C00000ED
:1022600082B1837C8C6082B9119A95E09A95F1F7DE
:10227000000011988FE19EE40197F1F700C0000083
:1022800082B1837C8C6082B9119A95E09A95F1F7BE
:10229000000011988FE891E00197F1F700C000006D
:1022A00082B1837C8C6082B9119A95E09A95F1F79E
:1022B000000011988FE19EE40197F1F700C0000043
:1022C00082B1837C886082B9119A95E09A95F1F782
:1022D0000000119885ED8A95F1F7000088E20E94D0
:1022E000EF108CE00E94EF1086E00E94EF1081E07A
:1022F0000E94EF108FE39FE10197F1F700C000000B
:102300000895109A42B1982F92959F7054E0959F2E
:1023100090011124942F937C292B22B9119A95E0D6
:102320009A95F1F70000119822B1237C34E0839F45
:10233000C0011124822B82B9119A55E05A95F1F708
:102340000000119885ED8A95F1F700000895CF936C
:10235000DF938091A6088823E1F11092A6088BEA0A
:1023600098E09F938F93CEE6D4E0DF93CF938DE2F6
:1023700099E09F938F930E94AB238CEE98E09F93FC
:102380008F93DF93CF938EE399E09F938F930E9477
:10239000AB2380E80E94EF10CDE2D9E08DB79EB765
:1023A0000C960FB6F8949EBF0FBE8DBF89910E9408
:1023B000811199E0CD33D907C9F780EC0E94EF1065
:1023C000CEE3D9E089910E94811189E0CE34D8070B
:1023D000C9F7DF91CF9108958F929F92AF92BF92EC
:1023E000CF92DF92FF920F931F93CF93DF93E82F4B
:1023F000F62FCA01B9012F2F2370FC70FF2ECE2FAC
:10240000D0E0FE01EE0FFF1FE85AFD4F211117C06B
:1024100000811181F801EC55FF4F1182108238962E
:10242000812C912C30E8A32E3FE3B32E8082918241
:10243000A282B382680120EBC20ED11C1AC02130E7
:1024400021F500811181F801EC55FF4F21E030E0CA
:10245000318320833896812C912C20E8A22E2FEBFB
:10246000B22E80829182A282B3826801F0EBCF0EFD
:10247000D11C2DEC3CEC4CEC5EE30E945321F601A8
:1024800060837183828393831CC080819181FC016E
:10249000EC55FF4F223019F422E030E002C023E077
:1024A00030E03183208338961082118212821382A9
:1024B00034964DEC5CEC6CEC7EE34083518362839C
:1024C00073833A9711821082FF20A9F0CC0FDD1F91
:1024D000C85ADD4F88819981FC01E855FF4FDC0126
:1024E000A455BF4F8D919D910D90BC91A02D8083DF
:1024F0009183A283B383DF91CF911F910F91FF90BE
:10250000DF90CF90BF90AF909F908F90089520E084
:1025100030E040E85FE30C94EC11AF92BF92DF92A1
:10252000EF92FF920F931F93CF93DF93D22EE82F5A
:10253000F0E0EE0FFF1FE85AFD4FC081D181FE0190
:10254000EC54FF4F40835183628373835E0180EBC1
:10255000A80EB11C2DEC3CEC4CEC5EE3C801B701BD
:102560000E945321F5016083718382839383F1E09C
:10257000DF1619F081E090E002C082E090E0CA55D9
:10258000DF4F99838883DF91CF911F910F91FF9047
:10259000EF90DF90BF90AF900895EF92FF920F936E
:1025A0001F93E12CF12C00E81FE30E948D121F9174
:1025B0000F91FF90EF900895E82FF0E0EE0FFF1FCE
:1025C000E85AFD4F0190F081E02DEB53FF4F019051
:1025D000F081E02D60817181828193810895E82FDF
:1025E000F0E0EE0FFF1FE85AFD4F0190F081E02D63
:1025F000E953FF4F0190F081E02D6081718182816C
:1026000093810895E82FF0E0EE0FFF1FE85AFD4F89
:102610000190F081E02DE854FF4F81E0908191110D
:1026200001C080E008950F931F93E82FF0E0EE0FB4
:10263000FF1FE85AFD4F80819181FC01E754FF4F55
:102640004083518362837383349600831183228392
:1026500033831F910F910895E82FF0E0EE0FFF1FD5
:10266000E85AFD4F80819181FC01E754FF4F40E023
:1026700050E06AE774EC408351836283738334963D
:1026800040E050E06AE774E44083518362837383DF
:102690000895CF93DF93E82FF0E0EE0FFF1FE85A85
:1026A000FD4FC081D181FE01E754FF4F20E030E0B3
:1026B0004AE754EC60817181828193810E944E21AE
:1026C000181694F4FE01E354FF4FC1E020E030E01F
:1026D0004AE754E460817181828193810E94F61FF0
:1026E00087FFC0E08C2F01C080E0DF91CF9108957B
:1026F000FC01EC55FF4F22E030E03183208332971C
:10270000318320833A961082118212821382349789
:10271000108211821282138238964DEC5CEC6CECC4
:102720007EE340835183628373833A9711821082E0
:102730007B961082118212821382389740E050E01B
:102740006AE774EC4083518362837383349640E07C
:1027500050E06AE774E44083518362837383089591
:10276000EF920F931F93CF93DF938AE4E82E05E057
:1027700029E031E04BE051E06AE071E08FE499E05C
:102780000E9473189AE2E92E03E029E031E04BE061
:1027900051E06AE071E08FE599E00E9473182AE445
:1027A000E22E07E029E031E04BE051E06AE071E021
:1027B0008FE699E00E94731839E4E32E01E029E0E6
:1027C00031E04BE051E06AE071E08FE799E00E9470
:1027D000731821E030E04FE153E06FE070E08FE8E4
:1027E00099E00E94E8184AE4E42E04E029E031E090
:1027F0004BE051E06AE071E080EA99E00E947318D2
:102800005AE2E52E02E029E031E04BE051E06AE0D7
:1028100071E080EB99E00E9473186AE4E62E06E00E
:1028200029E031E04BE051E06AE071E080EC99E0B2
:102830000E94731879E4E72E01E029E031E04BE0D3
:1028400051E06AE071E080ED99E00E94731821E0A8
:1028500030E04FE153E06EE070E080EE99E00E94DE
:10286000E818C8E5D2E0888199810E947813088130
:10287000198180E00E94EE1DF801EB53FF4F918318
:1028800080830990D881C02D80E00E94F81DC95333
:10289000DF4F99838883DF91CF911F910F91EF9044
:1028A00008952F923F924F925F926F927F928F92F4
:1028B0009F92AF92BF92CF92DF92EF92FF920F93CF
:1028C0001F93CF93DF93CDB7DEB72E970FB6F89453
:1028D000DEBF0FBECDBF6B877C878D879E871A01B9
:1028E0009A012A553F4F3E832D83D9010D90BC910B
:1028F000A02DB887AF83CD010197FA01EB53FF4FAD
:10290000FA87E987029708F0BDC0008111817197AD
:1029100080809180A280B380A5019401D8016D913F
:102920007D918D919C910E94891F6B017C01E8949F
:10293000F7F82DEC3CEC4CEC5DE3C701B6010E94CE
:10294000F61F87FD2CC020E030E040EC5FE3C701BC
:10295000B6010E94F61F87FF1BC03101B0EB6B0E62
:10296000711C20E030E040E85FE3F3016081718199
:10297000828193810E944E2118168CF480E090E0B1
:10298000A0E8BFE3F30180839183A283B38307C0F0
:10299000412C512C90E8692E9FE3792E08C08DECD4
:1029A000482E8CEC582E8CE4682E8EE3782ED801BD
:1029B0008D919D910D90BC91A02D89839A83AB83BD
:1029C000BC839C01AD01C501B4010E944E2181016F
:1029D00004551F4F18165CF4F101EC55FF4F11829E
:1029E0001082F801408251826282738219C029816B
:1029F0003A814B815C81C501B4010E94F61F87FFBB
:102A00000FC081E090E0F101EC55FF4F918380838E
:102A1000D301C201B058F80180839183A283B383AC
:102A20005101F8EBAF0EB11CD5011C922AE037ED35
:102A300043EA5CE3C701B6010E94F61F87FF22C08C
:102A400083E090E0F101EC55FF4F91838083329752
:102A500091838083F8011082118212821382F10126
:102A6000E855FF4F10821182128213822F81388520
:102A70002130310521F4AD81BE811D921C9281E08F
:102A8000F5018083A985BA85ED91FC9180809180C4
:102A9000A280B380F101E754FF4F408051806280F3
:102AA000738020E030E040EC5FE3C501B4010E9498
:102AB000891FA30192010E94F61FF101E455FF4F07
:102AC0007F0191012E553F4F3A832983810108559B
:102AD0001F4F87FF3DC020E030E0A9016081718178
:102AE000828193810E94F61F87FF32C08DEC9CEC9F
:102AF000ACECBDEBF70180839183A283B383A30188
:102B00009201C501B4010E94891F2AE037ED43EA12
:102B10005CE30E94F61F87FF4AC083E090E0F1016A
:102B2000EC55FF4F91838083A981BA818D939C934B
:102B3000F7011082118212821382D8011D921D9218
:102B40001D921C921397ED81FE81118210822FC07D
:102B5000F101E354FF4F408051806280738020E098
:102B600030E040EC5FE3C501B4010E948A1FA3017D
:102B700092010E944E211816D4F420E030E0A90101
:102B8000D7016D917D918D919C910E944E211816D7
:102B900074F48DEC9CECACECBDE3F7018083918385
:102BA000A283B383A5019401C301B201ACCFD701C5
:102BB0004D905D906D907C90F801C080D180E28056
:102BC000F380A7019601C301B2010E94891F4B0146
:102BD0005C012B853C854D855E850E94FB1F9F77A0
:102BE0000E946D206115710579F4F101EC55FF4FDC
:102BF00080819181A981BA818D939C93F801408253
:102C00005182628273821AC080E090E00E949C2010
:102C10009B01AC01C501B4010E94FB1F20E030E024
:102C200040E650E40E945321A70196010E948A1FAA
:102C3000D8016D937D938D939C931397F801C08079
:102C4000D180E280F38020E030E0A901C701B60125
:102C50000E944E2118162CF4A981BA811D921C9253
:102C600019C020E030E0A901C701B6010E94F61F9B
:102C700087FF07C081E090E0E981FA81918380833A
:102C800009C0F101EC55FF4F80819181A981BA8182
:102C90008D939C932BED3FE049E450E4C701B601CE
:102CA0000E9453212BED3FE049EC5FE30E94891F16
:102CB0000E94C0212B013C012AE939E949E15EE388
:102CC000F101E055FF4F60817181828193810E9403
:102CD000891F4B015C0120E030E040E85FE3C30165
:102CE000B2010E948A1F9B01AC01C501B4010E9480
:102CF000532120E030E040E05FE30E9453212AE9C5
:102D000039E949E15EE30E948A1F4B015C01E894C6
:102D1000B7F8E894F7F820E030E040E45FE3C7015B
:102D2000B6010E94F61F87FD05C020E030E040E4B8
:102D30005FE30CC02DEC3CEC4CE45EE3C701B60154
:102D40000E94F61F18164CF4A7019601C501B401A4
:102D50000E9453216B017C0103C0C12CD12C760150
:102D6000E981FA81808191818101005C1F4F91018D
:102D70002F563F4F3901009741F523E333E343E9F1
:102D80005FE3C501B4010E945321AB01BC01C8013E
:102D90000E949B18C10180960E942518C10140968F
:102DA0000E94131823E333E343E95FE3C701B6014D
:102DB0000E945321AB01BC01C3010E949B18C101B9
:102DC0008F589F4F0E9413181AC081309105A1F5AA
:102DD000B701A601C8010E949B18C10180960E94FC
:102DE0001318C10140960E941318B501A401C30134
:102DF0000E949B18C1018F589F4F0E942518C10146
:102E00008F599F4F2E960FB6F894DEBF0FBECDBFE1
:102E1000DF91CF911F910F91FF90EF90DF90CF90B6
:102E2000BF90AF909F908F907F906F905F904F90EA
:102E30003F902F900C941318039779F540E050E0E1
:102E400060E07FE3C8010E949B1840E050E060E032
:102E50007FE3C3010E949B18C10140960E94251880
:102E6000C1018F599F4F2E960FB6F894DEBF0FBE4B
:102E7000CDBFDF91CF911F910F91FF90EF90DF9029
:102E8000CF90BF90AF909F908F907F906F905F900A
:102E90004F903F902F900C94251840E050E0BA01DD
:102EA000C8010E949B1840E050E0BA01C3012E9671
:102EB0000FB6F894DEBF0FBECDBFDF91CF911F914B
:102EC0000F91FF90EF90DF90CF90BF90AF909F90C9
:102ED0008F907F906F905F904F903F902F900C94C9
:102EE0009B1840915802509159020C9451140E9421
:102EF000E71E0E9415110E94341A0E94361C0E947F
:102F0000B0130C94891D8F929F92AF92BF92CF9273
:102F1000DF92EF92FF920E94F41E6B017C010E94EF
:102F2000FF1E4B015C018091EA059091EB05A09199
:102F3000EC05B091ED05A7019601281B390B4A0B52
:102F40005B0BCA01B9010E949C2020E030E04AE7F7
:102F500054E40E94FB1F6093E2057093E3058093A5
:102F6000E4059093E505C092EA05D092EB05E09266
:102F7000EC05F092ED058092E6059092E705A092AF
:102F8000E805B092E9050E94F31E6091E205709198
:102F9000E3058091E4059091E5050E94A7116091F9
:102FA000E2057091E3058091E4059091E5050E94AA
:102FB000AA1B6091E2057091E3058091E405909170
:102FC000E5050E946D1D6091E2057091E305809119
:102FD000E4059091E5050E9471176091E2057091FA
:102FE000E3058091E4059091E5050E94A91E8FE517
:102FF0009DE60197F1F700C00000FF90EF90DF9091
:10300000CF90BF90AF909F908F9008956091E20510
:103010007091E3058091E4059091E5050895FC0128
:10302000108211820895DC011396ED91FC911497A2
:10303000908118968C91892B80830895FC012081C2
:10304000213011F40C9413180895DC011396ED91BE
:10305000FC911497908118968C9180958923808398
:103060000895FC012081213011F40C942518089555
:103070001F93CF93DF93EC01162F862F877091F06B
:103080008883813039F4E981FA819081888580953F
:10309000892307C0823031F4E981FA8190818885E3
:1030A000892B808317FF03C081E0898701C01986BF
:1030B00013FF03C0CE010E94311814FF03C0CE01DC
:1030C0000E941E1815FF03C0CE010E94131816FFA0
:1030D00006C0CE01DF91CF911F910C942518DF918E
:1030E000CF911F910895EF920F93FC01728361833A
:1030F0005483438336832583078381E001C0880F8F
:103100000A95EAF780876E2DCF010F91EF900C940E
:103110003818FC019185A581B6818085992329F015
:103120009C91982381E031F004C09C91982381E028
:1031300009F480E008950F931F93CF93DF9300D09D
:103140001F92CDB7DEB78C019A01AB01DC011C9652
:103150008D919C911D971E966D917C911F97049760
:10316000C0F080E090E029833A834B835C830E9427
:103170009C2029813A814B815C810E9453210E94CD
:103180006D20D8011A96ED91FC911B977183608395
:1031900016C080E090E029833A834B835C830E94D1
:1031A0009C2029813A814B815C810E9453210E949D
:1031B0006D20D8011A96ED91FC911B9760830F90BA
:1031C0000F900F900F90DF91CF911F910F91089565
:1031D000DC0184E08C931D967C936E931C97643085
:1031E000710520F46230710528F017C06031710557
:1031F00008F039C12034310571F138F4213031053E
:10320000A1F12830310529F10895211581E0380711
:1032100021F12115344019F1089520343105E9F0E8
:1032200058F428303105A9F020323105A1F02130C1
:10323000310509F018C119C0211581E0380789F05E
:10324000211584E0380779F02038310509F00BC1E9
:1032500006C082E00BC083E009C084E007C085E0BF
:1032600005C086E003C087E001C081E0982F986127
:103270006031710508F0F7C0FB018827EE58FF4F59
:103280008F4F0C94811F809180008C7F826080938F
:10329000800080918100807E892B809381008091C5
:1032A00082008F7180938200509387004093860044
:1032B000809190008C7F826080939000809191003B
:1032C000807E892B80939100809192008F718093F2
:1032D000920050939700409396008091A0008C7FBD
:1032E00082608093A0008091A100807E892B8093D2
:1032F000A1008091A2008F718093A2005093A7003B
:103300004093A600809120018C7F826080932001F1
:1033100080912101807E892B80932101809122015F
:103320008F7180932201509327014093260102C0A0
:103330004FEF50E01F965C934E931E9760317105DE
:1033400008F091C0FB018827EE57FF4F8F4F0C9478
:10335000811F809180008F7380688093800088E84F
:1033600090E077C0809180008F7C806280938000A5
:103370008AE890E06EC080918000837F88608093AF
:1033800080008CE890E065C0809190008F73806829
:103390008093900088E990E05CC0809190008F7CE1
:1033A0008062809390008AE990E053C08091900001
:1033B000837F8860809390008CE990E04AC0809180
:1033C000A0008F7380688093A00088EA90E041C0DD
:1033D0008091A0008F7C80628093A0008AEA90E0B8
:1033E00038C08091A000837F88608093A0008CEA21
:1033F00090E02FC0809120018F738068809320011E
:1034000088E291E026C0809120018F7C80628093C9
:1034100020018AE291E01DC080912001837F8860B5
:10342000809320018CE291E014C06230710561F05C
:103430006330710561F06130710519F087E490E047
:1034400008C088E490E005C083EB90E002C084EB04
:1034500090E01B969C938E931A9740E050E0BA013F
:10346000CD010C949B180895EF920F93CF93DF93A7
:10347000CEEED5E01F8A81EBE82E00E026E031E0B9
:1034800048E051E067E071E080EF95E00E9473183A
:103490001FA605E026E031E048E051E067E071E07A
:1034A00088E096E00E9473181092350601E026E04D
:1034B00031E048E051E067E071E080E296E00E9490
:1034C000731810924D0602E026E031E048E051E02A
:1034D00067E071E088E396E00E9473181092650639
:1034E00003E026E031E048E051E067E071E080E58C
:1034F00096E00E94731810927D0604E026E031E009
:1035000048E051E067E071E088E696E00E947318B9
:10351000C2E0C093950699E4E92E06E02FE230E080
:1035200041E350E060E370E080E896E00E947318A9
:10353000C093AD0607E02FE230E041E350E060E3E6
:1035400070E088E996E00E947318DF91CF910F91A7
:10355000EF90089528E1829FC0011124FC01E251FF
:10356000FA4F81E09289923009F080E0089528E1D5
:10357000829FC0011124FC01E251FA4F81E092893F
:10358000913009F080E0089528E1829FC001112464
:10359000FC01E251FA4F928981E0923031F098308B
:1035A00029F0903219F080E008950895089528E1F7
:1035B000829FC0011124FC01E251FA4F81E09289FF
:1035C000923008F480E00895CF9328E1829FC001F3
:1035D0001124FC01E251FA4F8289823080F0C1E06F
:1035E00026E636E646E65FE363897489858996892F
:1035F0000E944E2118160CF0C0E08C2F01C080E014
:10360000CF91089528E1829FC0011124FC01E2516D
:10361000FA4F828908958F929F92AF92BF92CF9274
:10362000DF92EF92FF921F93CF93DF934B015C01E8
:10363000EA018F89182F117080FD80C0CA0102969F
:103640000E9489189F8991FF04C0811114E01A8B90
:1036500075C01A8981110AC01E7F11F081E067C010
:103660001B8A1C8A1D8A1E8A1A8A68C0CB88DC883D
:10367000ED88FE8820E030E040E151E4C701B6016A
:103680000E94F61F87FF0AC0A7019601C501B40179
:103690000E948A1F6B8B7C8B8D8B9E8B111102C0BD
:1036A00082E045C0123011F01430F1F4CB88DC8890
:1036B000ED88FE8826E636E646E65FE3C701B601FA
:1036C0000E94F61F87FF02C084E031C0143061F40D
:1036D00026E636E646E65FE3C701B6010E944E21C4
:1036E00087FD27C088E023C0183021F0103111F089
:1036F0001032F9F480E18A8BCB88DC88ED88FE8873
:1037000020E030E040E85FE3C701B6010E944E21AF
:1037100087FD14C02DEC3CEC4CEC5DE3C701B60119
:103720000E94891F6B8B7C8B8D8B9E8B80E28A8B9A
:1037300005C01A8A1B8A1C8A1D8A1E8ADF91CF91B6
:103740001F91FF90EF90DF90CF90BF90AF909F9030
:103750008F900895CF92DF92EF92FF92CF93DF93F5
:103760006B017C01CEEED5E0AE01C701B6010E942F
:103770000B1B689686E0CE3AD807B1F7DF91CF9160
:10378000FF90EF90DF90CF900895CF93DF9327E2E3
:10379000829FC0011124EC01C255D94F1A8A198A9F
:1037A0001C8A1B8ACE010E9425181A8E198EDF9161
:1037B000CF910895CF93DF93A82FB0E097E2899F30
:1037C000F0011124E255F94F83E090E0928B818B58
:1037D000211103C0148A138A09C0213019F481E031
:1037E00090E002C0223011F4948B838B87E28A9F91
:1037F000E0018B9FD00D1124C255D94F1D8A1E8A1E
:103800001F8A188E1A8E198E7CA36BA35EA34DA3FC
:1038100020E030E0A901FB01608171818281938108
:103820000E944E2118162CF4CE01DF91CF910C94FA
:103830001318DF91CF910895FC01128A118A148A1E
:10384000138A158A168A178A108E81E090E0928F6B
:10385000818F138E148E158E168E178E10A211A2C4
:1038600012A214A213A216A215A20895EF920F930A
:10387000CF93DF93CEEAD6E0188A8AE4E82E06E0FA
:1038800026E031E048E051E067E071E0CE010E94BF
:103890007318CE010E941C1C1FAA07E026E031E02D
:1038A00048E051E067E071E085ED96E00E94731812
:1038B00085ED96E00E941C1C10920C0700E02FE2A0
:1038C00030E041E350E060E370E08CEF96E00E946E
:1038D00073188CEF96E0DF91CF910F91EF900C94DD
:1038E0001C1C8F929F92AF92BF92CF92DF92EF9269
:1038F000FF920F931F93CF93DF93EC016A017B013B
:1039000009891A890130110559F4898D9A8D892BFD
:1039100009F0D6C0CE010E9413181A8F098FD0C0AB
:103920000115110569F4898D9A8D892B09F0C8C09C
:10393000CE010E94251881E090E09A8F898FC0C047
:103940000230110509F059C02D893E894F89588DE3
:10395000C701B6010E948A1F4B015C016D8B7E8BF3
:103960008F8B988F0B891C8902301105C1F0A7013C
:1039700096016F8D78A189A19AA10E94891F6F8FEE
:1039800078A389A39AA320E030E0A9010E94F61F42
:1039900018162CF01A8B098B1A8E198E91C0CB8CAD
:1039A000DC8CED8CFE8CA7019601C501B4010E9450
:1039B0004E2187FD85C0098D1A8D81E008271A8F59
:1039C000098FA7019601C501B4010E94891F6D8B63
:1039D0007E8B8F8B988F012B09F450C0CE01DF9125
:1039E000CF911F910F91FF90EF90DF90CF90BF90FC
:1039F000AF909F908F900C9413180330110509F02D
:103A00005FC02D893E894F89588DC701B6010E943C
:103A10008A1F4B015C016D8B7E8B8F8B988FCBA0A7
:103A2000DCA0E98CFA8C8701000F111F000F111F19
:103A30000C0D1D1DF8012081318142815381C5018A
:103A4000B4010E944E211816DCF5FFEFEF1AFF0AB1
:103A5000FA8EE98EF8012081318142815381C501BE
:103A6000B4010E94891F6D8B7E8B8F8B988F8DA1E7
:103A70009EA1E816F90688F4E0FEB0CFCE01DF91F2
:103A8000CF911F910F91FF90EF90DF90CF90BF905B
:103A9000AF909F908F900C9425188B899C899A8B5E
:103AA000898B1A8E198E20E030E0A901F601608121
:103AB0007181828193810E944E2118160CF48ECF61
:103AC000DF91CF911F910F91FF90EF90DF90CF90FA
:103AD000BF90AF909F908F900895CF92DF92EF921A
:103AE000FF926B017C01AB01BC018EEA96E00E9463
:103AF000711CB701A60185ED96E00E94711CB7010B
:103B0000A6018CEF96E0FF90EF90DF90CF900C94A1
:103B1000711CCF93DF93989A999A9A9A579A5F9AC1
:103B200017B884B3887F826084BB5F9AECE5F2E0CB
:103B3000C081D18180ED97E0A0E0B0E088839983D7
:103B4000AA83BB830280F381E02D80839183A283CB
:103B5000B383DF91CF9108955F98E7ECF0E0319760
:103B6000F1F700C000005F9AF5E3FA95F1F7000065
:103B7000E82FF0E0EE0FFF1FE45AFD4F0190F081B7
:103B8000E02D148215821682178210861186128605
:103B900013861486158616861786108A118A128A4D
:103BA000138A0895E82FF0E0EE0FFF1FE45AFD4F4F
:103BB0000190F081E02D648575858685978508954F
:103BC000E82FF0E0EE0FFF1FE45AFD4F0190F08167
:103BD000E02D60897189828993890895E82FF0E04A
:103BE000EE0FFF1FE45AFD4F808191810C960895DE
:103BF000E82FF0E0EE0FFF1FE45AFD4F8081918126
:103C00004096089524B3287F822F846084BB35E0DA
:103C10003A95F1F7000066B1862F90E0A0E0B0E0A1
:103C2000BA2FA92F982F8827322F356034BB35E063
:103C30003A95F1F7000036B1832BBA2FA92F982FB0
:103C4000882724BB35E03A95F1F7000036B1832B85
:103C5000BA2FA92F982F8827322F316034BB35E037
:103C60003A95F1F7000036B1226024BBBC01CD01CA
:103C7000632B08952F923F924F925F926F927F92A3
:103C80008F929F92AF92BF92CF92DF92EF92FF926C
:103C90000F931F93CF93DF9300D01F92CDB7DEB762
:103CA0001C012A013B0109831A832B833C83FC01FD
:103CB00084819581A681B781448355836683778308
:103CC0004A015B01881A990AAA0ABB0A8086918672
:103CD000A286B38660817181828193810E949C203B
:103CE0006B017C01C301B2010E949E20A7019601D5
:103CF0000E94FB1FF1016487758786879787C5013E
:103D0000B4010E949E2029813A814B815C810E94EE
:103D1000FB1FA70196010E94FB1FF101608B718BB5
:103D2000828B938B0F900F900F900F90DF91CF911C
:103D30001F910F91FF90EF90DF90CF90BF90AF90C9
:103D40009F908F907F906F905F904F903F902F90BB
:103D50000895CF92DF92EF92FF920F931F932091DD
:103D6000A7083091A8084091A9085091AA080E947C
:103D70008A1F6B017C016093A7087093A808809349
:103D8000A9089093AA0829E838E848E05DE30E9472
:103D9000F61F87FD15C080E00E94021EAB01BC012A
:103DA0009701860180915C0290915D020E943A1E0B
:103DB0001092A7081092A8081092A9081092AA08B9
:103DC0001F910F91FF90EF90DF90CF90089585B5F0
:103DD000826085BD85B5816085BDEEE6F0E08081BD
:103DE0008160808308950895F89460914C077091E4
:103DF0004D0780914E0790914F0778940895F8945D
:103E00008091500790915107A0915207B0915307AC
:103E100026B5A89B05C02F3F19F00196A11DB11D25
:103E20007894BA2FA92F982F8827820F911DA11D52
:103E3000B11DBC01CD0142E0660F771F881F991F9D
:103E40004A95D1F708951F920F920FB60F92112441
:103E50002F933F938F939F93AF93BF9380914C0782
:103E600090914D07A0914E07B0914F0730914B07AD
:103E700023E0230F2D3720F40196A11DB11D05C0AD
:103E800026E8230F0296A11DB11D20934B078093B6
:103E90004C0790934D07A0934E07B0934F07809126
:103EA000500790915107A0915207B0915307019686
:103EB000A11DB11D8093500790935107A093520705
:103EC000B0935307BF91AF919F918F913F912F91E5
:103ED0000F900FBE0F901F901895AA1BBB1B51E1AE
:103EE00007C0AA1FBB1FA617B70710F0A61BB70B6A
:103EF000881F991F5A95A9F780959095BC01CD010F
:103F00000895EE0FFF1F881F8BBF0790F691E02DDD
:103F100019945058BB27AA270E94A11F0C94142162
:103F20000E94062138F00E940D2120F039F49F3FB5
:103F300019F426F40C9403210EF4E095E7FB0C949D
:103F4000FD20E92F0E94252158F3BA176207730755
:103F50008407950720F079F4A6F50C9447210EF418
:103F6000E0950B2EBA2FA02D0B01B90190010C0189
:103F7000CA01A0011124FF27591B99F0593F50F4A1
:103F8000503E68F11A16F040A22F232F342F4427F9
:103F9000585FF3CF469537952795A795F0405395F1
:103FA000C9F77EF41F16BA0B620B730B840BBAF0C1
:103FB0009150A1F0FF0FBB1F661F771F881FC2F72C
:103FC0000EC0BA0F621F731F841F48F48795779540
:103FD0006795B795F7959E3F08F0B0CF9395880FFA
:103FE00008F09927EE0F9795879508950E94D9209C
:103FF00008F481E008950E940F200C9414210E947F
:104000000D2158F00E94062140F029F45F3F29F06D
:104010000C94FD2051110C9448210C9403210E9412
:10402000252168F39923B1F3552391F3951B550B83
:10403000BB27AA2762177307840738F09F5F5F4F7B
:10404000220F331F441FAA1FA9F335D00E2E3AF0BA
:10405000E0E832D091505040E695001CCAF72BD0D2
:10406000FE2F29D0660F771F881FBB1F2617370723
:104070004807AB07B0E809F0BB0B802DBF01FF2755
:1040800093585F4F3AF09E3F510578F00C94FD2015
:104090000C9448215F3FE4F3983ED4F386957795DE
:1040A0006795B795F7959F5FC9F7880F911D96950E
:1040B000879597F90895E1E0660F771F881FBB1F6A
:1040C000621773078407BA0720F0621B730B840B17
:1040D000BA0BEE1F88F7E09508950E942D2188F015
:1040E0009F5798F0B92F9927B751B0F0E1F0660FBC
:1040F000771F881F991F1AF0BA95C9F714C0B130FD
:1041000091F00E944721B1E008950C944721672F58
:10411000782F8827B85F39F0B93FCCF3869577952B
:104120006795B395D9F73EF4909580957095619514
:104130007F4F8F4F9F4F0895E89409C097FB3EF43F
:1041400090958095709561957F4F8F4F9F4F9923E4
:10415000A9F0F92F96E9BB279395F6958795779562
:104160006795B795F111F8CFFAF4BB0F11F460FF22
:104170001BC06F5F7F4F8F4F9F4F16C0882311F07A
:1041800096E911C0772321F09EE8872F762F05C08E
:10419000662371F096E8862F70E060E02AF09A9529
:1041A000660F771F881FDAF7880F9695879597F91E
:1041B0000895990F0008550FAA0BE0E8FEEF1616B8
:1041C0001706E807F907C0F012161306E407F5070B
:1041D00098F0621B730B840B950B39F40A2661F07F
:1041E000232B242B252B21F408950A2609F4A14022
:1041F000A6958FEF811D811D089597F99F6780E82F
:1042000070E060E008959FEF80EC089500240A9428
:104210001616170618060906089500240A941216A1
:104220001306140605060895092E0394000C11F4D4
:10423000882352F0BB0F40F4BF2B11F460FF04C081
:104240006F5F7F4F8F4F9F4F089557FD9058440FDA
:10425000551F59F05F3F71F04795880F97FB991FE5
:1042600061F09F3F79F087950895121613061406A2
:10427000551FF2CF4695F1DF08C01616170618062F
:10428000991FF1CF86957105610508940895E8940A
:10429000BB2766277727CB0197F908950E94D9207D
:1042A00008F48FEF08950E9466210C9414210E9457
:1042B000062138F00E940D2120F0952311F00C9476
:1042C000FD200C94032111240C9448210E942521E7
:1042D00070F3959FC1F3950F50E0551F629FF00159
:1042E000729FBB27F00DB11D639FAA27F00DB11D72
:1042F000AA1F649F6627B00DA11D661F829F2227FB
:10430000B00DA11D621F739FB00DA11D621F839F81
:10431000A00D611D221F749F3327A00D611D231F57
:10432000849F600D211D822F762F6A2F11249F57A5
:1043300050409AF0F1F088234AF0EE0FFF1FBB1FA8
:10434000661F771F881F91505040A9F79E3F510567
:1043500080F00C94FD200C9448215F3FE4F3983EDC
:10436000D4F3869577956795B795F795E7959F5F11
:10437000C1F7FE2B880F911D9695879597F90895A3
:104380009F930E94CA210F9007FCEE5F0C94F321CB
:104390000C9403210E942D21D8F3E894E0E0BB2780
:1043A0009F57F0F02AED3FE049EC06C0EE0FBB0F3F
:1043B000661F771F881F28F0B23A620773078407C9
:1043C00028F0B25A620B730B840BE3959A9572F73F
:1043D000803830F49A95BB0F661F771F881FD2F77D
:1043E00090480C940922EF93E0FF07C0A2EA2AED5F
:1043F0003FE049EC5FEB0E94A11F0E9414210F9047
:10440000039401FC9058E4E2F1E00C9415229F3FE4
:1044100031F0915020F4879577956795B795880F7F
:10442000911D9695879597F908959F938F937F9304
:104430006F93FF93EF939B01AC010E945321EF9187
:10444000FF910E9429222F913F914F915F910C94EF
:104450005321DF93CF931F930F93FF92EF92DF923D
:104460007B018C01689406C0DA2EEF010E94662160
:10447000FE01E894A5912591359145915591A6F3BA
:10448000EF010E94A11FFE019701A801DA9469F7CC
:10449000DF90EF90FF900F911F91CF91DF910895E2
:1044A000283008F027E03327DA01990F311D87FD06
:1044B000916000966105710539F432602E5F3D937D
:1044C00030E32A95E1F708959F3F30F08038710579
:1044D000610509F03C5F3C5F3D93913008F08068D6
:1044E000911DDF93CF931F930F93FF92EF92192F9C
:1044F000987F9695E92F96959695E90FFF27E45EAC
:10450000FD4F99273327EE24FF24A701E7010590EB
:104510000894079428F4360FE71EF81E491F511D12
:10452000660F771F881F991F0694A1F705900794BF
:1045300028F4E70EF81E491F561FC11D770F881F6C
:10454000991F661F0694A1F70590079428F4F80EAA
:10455000491F561FC71FD11D880F991F661F771F40
:104560000694A1F70590079420F4490F561FC71F22
:10457000D81F990F661F771F881F0694A9F784918B
:104580001095177041F0D695C79557954795F794B4
:10459000E7941A95C1F7E2ECF1E068941590159153
:1045A00035916591959105907FE27395E118F10A37
:1045B000430B560BC90BD009C0F7E10CF11E431F8A
:1045C000561FC91FD01D7EF4703311F48A95E6CFB3
:1045D000E894015030F0080F0AF40027021708F49D
:1045E000202F2395022F7A3328F079E37D932A95A3
:1045F000E9F710C07D932A9589F6069497956795FB
:10460000379517951794E118F10A430B560BC90B10
:10461000D00998F023957E9173957A3308F070E372
:104620007C932013B8F77E9170617D9330F0839571
:1046300071E37D9370E32A95E1F71124EF90FF90E9
:104640000F911F91CF91DF91992787FD9095089544
:10465000FC010590615070400110D8F7809590954D
:104660008E0F9F1F0895FC01615070400190011052
:10467000D8F7809590958E0F9F1F08950F931F93E5
:10468000CF93DF93182F092FEB018B8181FD03C09E
:104690008FEF9FEF1EC082FF0FC02E813F818C8164
:1046A0009D812817390774F4E881F981CF010196BB
:1046B00099838883108306C0E885F985812F199531
:1046C000892B31F78E819F8101969F838E83812F65
:1046D000902FDF91CF911F910F9108950F931F930A
:1046E000CF93DF93CDB7DEB72E970FB6F894DEBF2A
:1046F0000FBECDBF0E891F89888D998D26E02C8332
:104700001A83098397FF02C080E090E801979E8397
:104710008D83AE01445E5F4F6A8D7B8DCE01019625
:104720000E9481014D815E8157FD0AC02F8138852D
:10473000421753070CF49A01F801E20FF31F10829D
:104740002E960FB6F894DEBF0FBECDBFDF91CF918E
:104750001F910F9108950F931F93CF93DF93CDB7C0
:10476000DEB72E970FB6F894DEBF0FBECDBF0E8911
:104770001F8986E08C831A8309838FEF9FE79E83CE
:104780008D83AE01465E5F4F688D798DCE010196B7
:104790000E948101EF81F885E00FF11F10822E96B3
:1047A0000FB6F894DEBF0FBECDBFDF91CF911F9142
:1047B0000F9108950F931F93CF93DF93CDB7DEB77B
:1047C0002E970FB6F894DEBF0FBECDBF8C01FA0155
:1047D00086E08C831A83098377FF02C060E070E86B
:1047E000CB0101979E838D83A901BF01CE01019664
:1047F0000E9481014D815E8157FD0AC02F8138855D
:10480000421753070CF49A01F801E20FF31F1082CC
:104810002E960FB6F894DEBF0FBECDBFDF91CF91BD
:104820001F910F910895FA01AA27283051F12031E4
:1048300081F1E8946F936E7F6E5F7F4F8F4F9F4F34
:10484000AF4FB1E03ED0B4E03CD0670F781F891F76
:104850009A1FA11D680F791F8A1F911DA11D6A0F44
:10486000711D811D911DA11D20D009F468943F91F7
:104870002AE0269F11243019305D3193DEF6CF01F6
:104880000895462F4770405D4193B3E00FD0C9F7BC
:10489000F6CF462F4F70405D4A3318F0495D31FD29
:1048A0004052419302D0A9F7EACFB4E0A69597957C
:1048B000879577956795BA95C9F700976105710552
:1048C00008959B01AC010A2E06945795479537959C
:1048D0002795BA95C9F7620F731F841F951FA01DF6
:0648E0000895F894FFCFDB
:1048E60000000000CDCC4C3ECDCC4C3D0000403FFE
:1048F600CDCC4C3DCDCCCC3DCDCC4C3DCDCC4C3FA8
:10490600CDCC4C3DCDCCCC3DCDCC4C3DCDCC4C3F97
:10491600CDCC4C3D9A99F93FCDCC4C3D9A99F93F77
:10492600D905FB05A4060A079E077C0A66058C05C1
:1049360023053205410559054F09180A370723078C
:104946005B5245464552454E434941525D00434FF1
:104956004E54524F4C4F204C4956524500434F4EF1
:10496600464947205055425300444546494E49431F
:104976004F4553005B4D454E55205052494E4349D5
:1049860050414C5D00202020204155544F3A204F85
:104996004B00202020202020204155544F005361F9
:1049A600696E646F2E2E2E00536169723F003E20A1
:1049B600636F6E74726F6C6F206C69767265003E01
:1049C600207265666572656E63696172003E206479
:1049D6006566696E69636F6573003E20736169720F
:1049E600003E20696E6963696172003E20636F6EE6
:1049F6006669672E20707562732E005B4C5D204ED3
:104A06006F726D616C005B4C5D20537570657269E9
:104A16006F72005B4C5D20496E666572696F72004D
:104A26005B4C5D204C697672650025362E326672C7
:104A36002025352E3266727073005B435D20477207
:104A4600617661723F0053696D004E616F005B4392
:104A56005D204E6F7661206366673F2025630046C2
:104A66006F6C6861733A2025642076732025640094
:104A76005B435D20466F6C6861202532643F0050C1
:104A86003A202D2E2D2D2C20257300503A20253529
:104A96002E32662C202573005B435D20466F6C68C2
:104AA60061202532642028256329002532753A25A0
:104AB60030327568002532753A253032756D00251D
:104AC60032752E25317573002532752E25303275D7
:104AD60073007B527D205265666572656E636961FF
:104AE60072007B527D20496E6963696F007B527D3F
:104AF6002046696D007B527D20457374696361723F
:104B06000053656D20666F6C68617320646566731B
:104B160000506F727461206162657274612E2E2E70
:104B260000496E696369617220656D2025730041D5
:104B360020697220702F20666F6C686120256400E2
:104B46005B2532645D2050726F7820257300252D19
:044B56003136730081
:00000001FF
